:020000040800F2
:104000000050002059EE000879EB00087FEB000813
:1040100000000000000000000000000000000000A0
:1040200000000000000000000000000085EB000818
:1040300000000000000000008FEB000899EB000872
:10404000A9EE0008A9EE0008A9EB0008A9EE0008F7
:10405000A9EE0008A9EE0008B1EC0008A9EE0008DE
:1040600000000000A9EE0008A9EE0008A9EE000873
:10407000A9EE0008C9EB0008A9EE0008A9EE0008A7
:10408000A9EE0008A9EE0008A9EE00080000000053
:10409000A9EE0008A9EE0008A9EE0008A9EE0008A4
:1040A000A9EE0008A9EE0008A9EE000881EC0008BE
:1040B00099EC0008A9EE00080000000000000000D4
:1040C00010B5064C2378002B07D1054B002B02D0EE
:1040D000044800E000BF0123237010BDD801002078
:1040E00000000000588A0108044B10B5002B03D0D3
:1040F0000349044800E000BF10BDC04600000000B6
:10410000DC010020588A01080023C25C0133002A28
:10411000FBD1581E7047000002B47146490849009F
:10412000095C49008E4402BC7047C04603B4714626
:10413000490840004900095E49008E4403BC7047AD
:10414000002243088B4274D303098B425FD3030AD6
:104150008B4244D3030B8B4228D3030C8B420DD3E9
:10416000FF22090212BA030C8B4202D31212090277
:1041700065D0030B8B4219D300E0090AC30B8B42B5
:1041800001D3CB03C01A5241830B8B4201D38B0363
:10419000C01A5241430B8B4201D34B03C01A524108
:1041A000030B8B4201D30B03C01A5241C30A8B424B
:1041B00001D3CB02C01A5241830A8B4201D38B0236
:1041C000C01A5241430A8B4201D34B02C01A5241DA
:1041D000030A8B4201D30B02C01A5241CDD2C3094C
:1041E0008B4201D3CB01C01A524183098B4201D3C8
:1041F0008B01C01A524143098B4201D34B01C01AB3
:10420000524103098B4201D30B01C01A5241C3082A
:104210008B4201D3CB00C01A524183088B4201D399
:104220008B00C01A524143088B4201D34B00C01A85
:104230005241411A00D20146524110467047FFE7F1
:1042400001B5002000F0F0F802BDC0460029F7D00B
:1042500076E7704703460B437FD4002243088B4226
:1042600074D303098B425FD3030A8B4244D3030BFD
:104270008B4228D3030C8B420DD3FF22090212BAC2
:10428000030C8B4202D31212090265D0030B8B423E
:1042900019D300E0090AC30B8B4201D3CB03C01A28
:1042A0005241830B8B4201D38B03C01A5241430B03
:1042B0008B4201D34B03C01A5241030B8B4201D3F3
:1042C0000B03C01A5241C30A8B4201D3CB02C01A5E
:1042D0005241830A8B4201D38B02C01A5241430AD6
:1042E0008B4201D34B02C01A5241030A8B4201D3C5
:1042F0000B02C01A5241CDD2C3098B4201D3CB016C
:10430000C01A524183098B4201D38B01C01A52411A
:1043100043098B4201D34B01C01A524103098B421E
:1043200001D30B01C01A5241C3088B4201D3CB0009
:10433000C01A524183088B4201D38B00C01A5241EC
:1043400043088B4201D34B00C01A5241411A00D29C
:1043500001465241104670475DE0CA0F00D0494205
:10436000031000D34042534000229C4603098B4275
:104370002DD3030A8B4212D3FC22890112BA030AFD
:104380008B420CD3890192118B4208D3890192117F
:104390008B4204D389013AD0921100E08909C30904
:1043A0008B4201D3CB01C01A524183098B4201D306
:1043B0008B01C01A524143098B4201D34B01C01AF1
:1043C000524103098B4201D30B01C01A5241C30869
:1043D0008B4201D3CB00C01A524183088B4201D3D8
:1043E0008B00C01A5241D9D243088B4201D34B00F3
:1043F000C01A5241411A00D20146634652415B1035
:10440000104601D34042002B00D549427047634615
:104410005B1000D3404201B5002000F005F802BD5A
:104420000029F8D016E770477047C0468446100050
:1044300062468C461900634600E0C0461FB501F095
:10444000A5FC002801D40021C8421FBD10B501F011
:10445000F5FB4042013010BD10B501F097FC00287B
:1044600001DB002010BD012010BDC04610B501F0D9
:104470008DFC002801DD002010BD012010BDC046CC
:1044800010B501F01DFC002801DC002010BD01204A
:1044900010BDC04610B501F013FC002801DA002061
:1044A00010BD012010BDC046844608006146FFE7EC
:1044B0001FB500F071FB002801D40021C8421FBDC8
:1044C00010B500F0FDFA4042013010BD10B500F00B
:1044D00063FB002801DB002010BD012010BDC04699
:1044E00010B500F059FB002801DD002010BD0120AF
:1044F00010BDC04610B500F009FB002801DC00200B
:1045000010BD012010BDC04610B500F0FFFA002814
:1045100001DA002010BD012010BDC046002B11D1D2
:10452000002A0FD1002900D1002802D00021C94360
:10453000080007B4024802A14018029003BDC0461B
:10454000E9FEFFFF03B4684601B5029800F0D2F817
:10455000019B9E4602B00CBC7047C046F0B5CE46EB
:104560009946030C9C46130447461B0C1D000E0085
:1045700061460404240C80B50700100C4B436543CE
:10458000414360432C0CC01820188C46834203D949
:1045900080235B029846C444494679435643030C42
:1045A0002D042D0C8919634400044019C918C0BC9E
:1045B000B946B046F0BDC0469E2110B5C905041CE1
:1045C000FFF7A2FF002803D1201C00F0C9FC10BD9A
:1045D0009E21201CC90500F023FB00F0C1FC8023B4
:1045E0001B069C466044F2E770B500220C4B0400A9
:1045F0000D00FFF74FFF002804D12000290002F032
:104600008BFA70BD064B00222000290001F0E4FE69
:1046100002F082FA80231B069C466044F1E7C04604
:104620000000E04170B505000C00002200232800C6
:104630002100FFF711FF002808D12800210000F019
:104640000FF802000B001000190070BD80231B063C
:10465000E118280000F004F8002342428B41F2E701
:1046600070B500220B4B0D00040001F0F3FBFFF7C7
:10467000BBFF060002F0B6FA0022074B01F0EAFB8E
:1046800002000B002000290001F0A6FEFFF7ACFF9E
:10469000310070BD0000F03D0000F04170B5060033
:1046A000080002F06FFA0022064B01F0D3FB0D0068
:1046B0000400300002F096FA2B00220000F070FC9B
:1046C00070BDC0460000F04170B50600080002F061
:1046D00089FA0022064B01F0BDFB0D0004003000FA
:1046E00002F080FA2B00220000F05AFC70BDC04698
:1046F0000000F041F0B557464E464546DE46E0B56F
:1047000004000D009246994683B08B4230D82DD0DC
:104710004946504602F030FB29000600200002F016
:104720002BFB331A9846203B34D49B4653465A46BB
:10473000934042461F00534693401E00AF423BD871
:10474000AF4200D179E05B46A41BBD41002B00DAEB
:1047500076E0002200230092019301235A46934001
:104760000193012342469340009329E08242CFD92E
:1047700000220023009201930C9B002B01D01C60AF
:104780005D600098019903B0F0BCBB46B246A946F3
:10479000A046F0BD42469B4620239B1A5246DA4073
:1047A000414613004A468A40170042461F4353467B
:1047B00093401E00AF42C3D9002200230092019310
:1047C0004346002BD8D0FB0772081A4346467B08A5
:1047D0000EE0AB4201D1A2420CD8A41A9D410120A7
:1047E00024196D410021013E24184D41002E06D0B0
:1047F000AB42EED9013E24196D41002EF8D100984C
:1048000001995B4600196941002B24DB2B005A46B5
:104810004446D3402A00E2401C005B461500002BB2
:104820002ADB26009E40330026004746BE40320069
:10483000801A9941009001919EE7A342BCD882E77B
:104840004246202300219B1A00220091019201225E
:10485000DA40019285E7424620239B1A2A00464609
:104860009A402300F340444613432A00E2401C00D0
:104870005B461500002BD4DA42462F002023260089
:1048800097409B1ADE403B003343CDE7F0B54F46DF
:104890004646D6464502C0B547000C1C6D0A3F0E81
:1048A000C60F002F00D16FE0FF2F00D174E000236E
:1048B000802299469A46ED00D20415437F3F630259
:1048C0005B0A984663001B0EE40F002B4DD0FF2BB4
:1048D00045D042468021D200C904114388460022B7
:1048E0007F3B3100FF1A4B466140C9B20F2B00D904
:1048F000B8E070489B00C3589F46002398462600A6
:10490000454692465346022B00D18DE0032B00D141
:10491000A1E0012B18D03B007F33002B6DDD6A072F
:1049200004D00F222A40042A00D004352A0103D5DE
:10493000614B1D403B008033FE2B00DD74E0AA017B
:10494000520AD8B202E00E0000200022C005F6078D
:1049500010433043E0BCBA46B146A846F0BD4346DA
:10496000002B3FD10222FF3F03E04346002B2DD115
:10497000012231004B466140C9B213430F2B38D896
:104980004E489B00C3589F46002D13D104239946DF
:10499000033B00279A4692E7002D05D1082399464C
:1049A000063BFF279A468AE70C239946093BFF27D7
:1049B0009A4684E7280002F0C1F97627431F9D40FC
:1049C00000237F4299469A463F1A78E7404602F014
:1049D000B5F94246431F9A4076235B4290461B1A24
:1049E00000227EE703234A461A439146FC33032202
:1049F00077E70E00FF200022A8E70122D31A1B2B25
:104A0000A2DC9E372A00BD40DA406B1E9D41154353
:104A10006A0704D00F222A40042A00D004356A0114
:104A200044D50120002291E7FF2000228EE780225A
:104A30000026FF20D20389E7002398468022D20374
:104A4000154208D04346134205D11A4352022600AC
:104A5000FF20520A7AE78022D2032A435202FF2023
:104A6000520A73E742466B015501AB421AD21B2032
:104A70000022013F01261C0052005B00002C01DBDC
:104A80009D4201D85B1B324301380028F3D1581EE8
:104A9000834113431D003B007F330E00002B00DDDC
:104AA0003DE7AAE71A2001225B1BE3E7AA010020E9
:104AB000520A4BE780920108FFFFFFF7C0920108FE
:104AC00070B5420045024E024C00C30F6D0A012032
:104AD000120E760A240EC90FFF2A06D0FF2C03D02F
:104AE000A24201D1B54206D070BD002DFCD1FF2CF1
:104AF000FAD1002EF8D18B4206D00120002AF3D142
:104B00002800431E9841EFE70020EDE770B5420012
:104B100045024E024C00C30F6D0A120E760A240E97
:104B2000C80FFF2A1BD0FF2C0ED0002A1BD1002C4F
:104B300001D1002E1CD0002D0CD083421CD00221AC
:104B4000581E0840013870BD002E22D1002AF4D131
:104B5000002DF2D10028F6D101204042F3E7002DCC
:104B600017D1FF2CF0D0002CE7D1002EE5D1E6E7DD
:104B70000020002DE7D0E2E7A24205DCEADBB542E7
:104B800002D8E7D30020DEE7434258414000013815
:104B9000D9E702204042D6E770B5420045024E02F6
:104BA0004C00C30F6D0A120E760A240EC80FFF2A9E
:104BB0000BD0FF2C0DD0002A1FD1002C16D1002EB7
:104BC00014D10020002D10D009E0002D0CD1FF2CB5
:104BD00013D1002E08D1002A08D0834212D002211E
:104BE000581E0840013800E0022070BD002DF4D1AD
:104BF0000028FAD101204042F7E7002CEDD1002E29
:104C0000EBD1ECE7A24205DCF2DBB54202D8EFD3F0
:104C10000020EAE74342584140000138E5E7C0463A
:104C2000F0B5C64643025B0A4500DA00C40F4802ED
:104C30004F009446420A1E00904600B52D0E3F0ECE
:104C4000C90F8009FF2F59D0012251408C4239D021
:104C5000EA1B002A58DD002F68D0FF2D00D1D1E0DB
:104C60008023DB0418431B2A00DCE3E001236246B7
:104C7000D31A5A0100D4ACE09B019E09300002F027
:104C80005DF8330005388340854200DCC6E0B24A57
:104C90002D1A13405A0704D00F221A40042A00D0BC
:104CA00004335A0100D497E06A1CFE2D00D184E041
:104CB0009B015E0AD2B2D0053043E407204380BC9A
:104CC000B846F0BDEA1B002A41DD002F6BD0FF2D56
:104CD00000D197E08023DB0418431B2A00DCCCE0E2
:104CE000012363445A0174D50135FF2D65D001229B
:104CF0009A491A405B080B401343CBE700281FD0AA
:104D00008C4222D02A00FF3A002A35D07A1B002D8F
:104D100000D099E06346002B00D1DDE0531E012A4C
:104D200000D105E1FF2A6BD01A0094E0002873D06F
:104D3000511E012A00D1DFE0FF2A63D00A0092E76A
:104D400001225140A14200D082E72A00FF3A002A06
:104D500036D07A1B002D00D1AAE0FF2F00D1DAE077
:104D600080236146DB0419438C461B2A00DCD4E017
:104D700001233D001B18B5E7FE276A1C174271D1BD
:104D8000002D00D09EE06346002B00D1D5E000222C
:104D9000002800D18FE71B1A5E0100D4D6E06346DD
:104DA0000C00C31A76E7002836D0511E012A00D124
:104DB0009AE0FF2A26D00A008FE7FF2200267AE732
:104DC000FE276A1C174262D0FF2AF6D01500604405
:104DD00043085A0700D05FE7DB08FF2D12D05B02C3
:104DE0005E0AEAB267E76246002A00D193E0002833
:104DF00008D08022D203134204D04046104201D191
:104E00000C004346002BD8D08026F6031E437602C2
:104E1000FF22760A4FE743461500DEE72022401BBB
:104E20000130121A19009340C1405A1E93410025C7
:104E30000B432FE720239B1A010098400300D14029
:104E40005A1E93410B4312E7FF2FD9D080236446AB
:104E5000DB041C43A4461B2A52DD01230C003D0049
:104E6000C31A06E763461E1A730139D4002E00D018
:104E700004E70024002200261DE720239B1A0100DE
:104E800098400300D1405A1E93410B4329E7002D5F
:104E9000A9D16346002B56D00022002800D10AE792
:104EA000030063445A0194D52B4A0135134090E71F
:104EB0006346002BAFD0531E012A15D0FF2A2AD0FB
:104EC0001A0052E76246002A91D1002898D1802624
:104ED0000024FF22F603EEE60C00434615007CE7B3
:104EE00063460C00C61AC9E60300634401255A0153
:104EF00000D46EE70225FAE6634601251B1AB8E6E0
:104F000064462023D4409B1A62469A4013005A1EDE
:104F100093412343A2E7434674E761462023D140EF
:104F20009B1A62469A4013005A1E93410B4320E796
:104F300063460C000125C31A9BE6002899D00C009B
:104F400046460022B7E646460022B4E6002B00D0D3
:104F50003FE700240026AEE6FFFFFFFBFFFFFF7DDB
:104F600041024200C30F490A0020120E7E2A03DDCF
:104F70009D2A02DD094A98187047802000040143E9
:104F8000952A07DC9620821AD1404842002BF3D1A3
:104F90000800F1E7963A9140F7E7C046FFFFFF7F30
:104FA000F0B54F464646D6460400C0B51F000B0379
:104FB00010004E005B0ACD0F610F7A001943E30029
:104FC0003C03FF0FBC46640A470F2743760D520D82
:104FD000C000B9468046B71A654500D19BE0002F56
:104FE00000DC84E0002A00D1BEE0C84A964200D12D
:104FF00024E180224C4612041443A146382F00DDE0
:1050000067E11F2F00DDD6E120224C46D21B9440E1
:10501000A2464446FC40200054460443404690408B
:10502000421E90414A46FA400443891A1C1BA3427F
:10503000924152428B1A9A4653461B0200D4D4E046
:1050400053465A02530A9A465346002B00D104E1B4
:10505000504601F073FE0300083B20222000D21AC4
:105060005146D040994002009C400A43B34200DAC6
:1050700002E19B1B591C1F2900DDA7E02023100023
:1050800026005B1A9C409840CE40CA40631E9C415B
:105090003043924600260443630709D00F23234080
:1050A000042B05D0231DA342A4416442A2441C004A
:1050B00053461B0200D49BE0944B01369E4200D124
:1050C000B8E053469249E4080B4019005B072343BC
:1050D00072054C02240B520D1205ED0722432A43A0
:1050E00018001100E0BCBA46B146A846F0BD002F3A
:1050F00048D0971B002E00D00EE10C001C4300D1BD
:10510000B7E17C1E012F00D126E2804DAF4200D1D5
:10511000D5E1270007E1002F00DCB2E0002A47D0EC
:105120007A4A964200D189E080224C461204144308
:10513000A146382F6BDC1F2F00DC6EE13A00484699
:10514000203AD0408446202F07D040224846D21B28
:10515000904002004046104380464046421E904127
:1051600062460400144357E04A46024300D103E17B
:105170007A1E012F00D193E1644CA74200D18AE14D
:1051800017003BE7634C721C224200D0E0E00A00AB
:105190001A43002E00D074E1002A00D1D0E14A4623
:1051A000024300D0E3E14A07DB081343C90829E0C2
:1051B0004A46024300D17DE17A1E012F00D1E0E092
:1051C000524CA74200D166E11700B2E710001F3B26
:1051D000D840202903D040235B1A9A401443631E11
:1051E0009C41002300269A460443630700D055E7FC
:1051F0005246E3085207134352463700D108434A48
:1052000097421FD009037A050C0B520D64E7424602
:105210004C461443621E9441E4189C42924152420F
:1052200092468A4453461B02DFD5384B01369E42D4
:1052300000D0B3E03200002400234DE74A07DB082A
:105240001343C9081A000A4300D100E28024240352
:105250000C4324032D4A240B3EE7200001F06EFD91
:10526000030018331F2B00DCF7E6220008388240C9
:105270000024B34200DBFCE6F61A254B1A409246A6
:105280000AE7002F2BD0971B002E00D1B8E01F4C4F
:10529000A24200D11CE1802424042143382F00DDE8
:1052A0001EE11F2F00DD9EE120260C00F61B1800DA
:1052B000B340B440F8405E1EB341F94004431C4380
:1052C0008944444444459B415B424B449A46160002
:1052D000A8E742464C461443621E9441A6E60D4C94
:1052E000721C224200D0A8E00A001A43002E00D00F
:1052F0000AE1002A00D15EE14A46024300D061E1A2
:105300004A07DB081343C9087CE7C046FF070000D3
:10531000FFFF7FFFFE070000CF4CA24200D1CEE08E
:10532000802424042143382F5BDC1F2F00DDDCE0C8
:1053300020250C00ED1B1E00AB40AC40FE405D1E66
:10534000AB413443F9401C434B465B1A99464CE051
:105350004A461C1A881AA3429241524292460200BF
:105360005046121A9246120278D45346234300D074
:105370006AE60021002545E74A07DB081343C90810
:105380003DE71C189C429B4149448A465B429A4433
:10539000534601261B0200D427E702265246AF4B94
:1053A00001211A401300214062080A43DC075B0810
:1053B0009A46144370E63A004C46203AD440A4463C
:1053C000202F07D040224846D21B90400200404682
:1053D000104380464046421E9041624604001443FA
:1053E00024E619430C00631E9C4143461C1BA04548
:1053F0009B4149465B42CB1A9A46654616001BE61E
:105400000C001C4300D1C7E07C1E012F00D1F9E045
:10541000914EB7425CD0270040E720224C464046E0
:10542000D21B9440F840044340469040421E9041B5
:105430004A46FA4004438918EEE6874CA24200D15E
:10544000F9E6181898429B4149445B42CB18DC07A7
:1054500040085B089A4616000443C6E64246D41A42
:10546000A04580414B464042591A0B1A9A46654660
:10547000EAE54B464A46C0085B0765460343D10848
:10548000BDE6002A00D08EE04B46034317D18021B1
:1054900000250903DAE64A07DB081343C908D1E609
:1054A0001C1A4A46A3429B41891A5B42CB1A9A4670
:1054B0000126C1E54A07DB081343C9089FE64346B6
:1054C000D8084B464A465B0765460343D108B9E610
:1054D0004346D8084B464A465B070343D108B1E62A
:1054E00019430C00631E9C41EBE63C000D00203C80
:1054F000E540202F03D04024E41BA1400B431C00B7
:10550000631E9C412C4370E7002AE1D04A460243C7
:10551000C1D04A07DB0813438022C9081203114295
:1055200008D04846C408144204D143462100DB0891
:10553000420713435A0FDB005207DB08134381E68F
:105540004B46034300D114E74B464A46C0085B076D
:1055500065460343D10855E6C41AA04580414B4631
:105560004042591A0B1A9A466546012664E51C1AF0
:105570004A46A34280418A1A4042121A92461202B7
:1055800049D54246D41AA04580414B464042591A5B
:105590000B1A9A4665467FE54B464A46C0085B07AC
:1055A0000343D1082BE64A46DB08024338D14A07B9
:1055B0001343C90846E64B464A46C0085B07034307
:1055C000D1081FE61C189C429B4149448A465B4215
:1055D0009A4453461B0200D407E652461F4B01264D
:1055E0001A40924601E63C000E00203CE640202F87
:1055F00003D04024E41BA1400B431C00631E9C41CC
:1056000034435EE643448342804149448A464042F3
:105610001C008244BCE65346234300D1A9E6E4E5DE
:105620004A0713438022C9081203114209D0484691
:10563000C408144205D1434665462100DB084207F1
:1056400013435A0FDB00DB0852071343FAE500232C
:10565000014A1C0040E5C046FF070000FFFF7FFF36
:10566000F0B557464E464546DE46E0B50C031F00F2
:105670004B0081469246050085B0240B5B0DCE0F92
:10568000002B00D152E1D24A934200D16EE1420F89
:10569000E40014438022120422439046CD4AC50000
:1056A00093469B440023994600933C037B0050465D
:1056B000240B5B0DFF0F002B00D11AE1C44A93426B
:1056C00000D15EE1420FE40022438024240414430D
:1056D000C04AC10094465A466344D31A9B460020F0
:1056E00033007B409A464B460F2B27D8BA4A9B0083
:1056F000D3589F46B246009B022B16D0032B00D1F5
:1057000087E2012B00D0D5E00023002200251B05F5
:1057100013435246D20713432800190005B0F0BCCA
:10572000BB46B246A946A046F0BD00220025A84BC4
:10573000EDE7BA46A0460D000090DCE7444500D2F4
:10574000C4E100D1BFE101235B429C462E004046EC
:105750000025E34423020C0E1C431B0C9946230432
:105760000A021F0C494600920197FEF76FFD0200E6
:105770007A430B04310C804619438A4207D901232E
:105780005B429C460919E0448C4200D801E2881A29
:105790004946FEF75BFD019A360442430904360C84
:1057A00003000E43B24204D93619013BB44200D87B
:1057B000E9E1B01A4246009E12041A43330C1F005E
:1057C000110C9046029313043204160C32001B0C89
:1057D0005A4303967B434E437943170CBC469B19AF
:1057E00063449E4203D980267602B44661441E0C6F
:1057F000711816041B04360C9E19884202D312D16C
:10580000B54210D243465A1E009B9C4665441F0079
:105810009D429B415B421B19C018844200D29EE10D
:1058200000D199E19046AE1BB542AD41401A6D42A0
:10583000401B844200D1D2E14946FEF707FD019AA0
:105840000B044243310C050019438A4200D96CE134
:10585000881A4946FEF7FAFC019A360442430904C5
:10586000360C03000E43B24200D953E10398B61A36
:1058700002002D041D43029F2B041B0C5A437B4343
:105880009C46290C4843130C844463447943984252
:1058900003D98020400284466144180C12041B0482
:1058A000120C40189B18864200D200E100D1FBE0A8
:1058B00001231D43494B5B44002B00DCAAE06A072F
:1058C00000D03DE1E9084246D20106D54246444BAC
:1058D0001A4080239046DB005B44424A934200DD3D
:1058E00023E742465B05550752020D43120B5B0D41
:1058F0000DE75146214300D17CE0002C00D1FBE0B4
:10590000200001F01BFA02000B3A1D239B1A52469D
:105910000100DA40534608398B408C40190014438B
:10592000314B58449B4683440020D9E6030023436F
:10593000984644D0002C00D1CFE0200001F0FEF9C1
:10594000010002000B391D235B1A49461000D940A3
:10595000083884400B004D46234398468540234B2E
:105960009B1A9B460023994600939EE60200224321
:1059700090461DD108229B460223002591460093A4
:1059800093E65146214309D102234A461A43184B54
:1059900091469C4600240220E344A1E603234A46A4
:1059A0001A43134B91469C4651460320E34497E625
:1059B0000C229B460323A0469146009375E60423E0
:1059C000994600239B460133002500936DE6C046AF
:1059D000FF07000001FCFFFF00930108FF03000028
:1059E000FFFFFFFEFE070000F30300000DFCFFFFBA
:1059F00001F8FFFF4A4601231A4391460024012083
:105A00006EE6002380229A460025884B12037EE62C
:105A100001256D420122D21A382A00DD74E61F2AC0
:105A200000DCBDE01F214942CB1A4146D9400B00A2
:105A3000202A04D041467E4A5A4491400D43290011
:105A40004A1E9141194307231D0000220D400B42BD
:105A500000D1D0E00F2200230A40042A00D1C7E081
:105A60000A1D8A42894149425B1811001A0200D47A
:105A7000BEE001230022002549E6802243461203AE
:105A8000134208D0144206D122431203BA460D0035
:105A9000664B120B3BE68022434612031A43120365
:105AA000B246624B120B32E6002B00D102E7A61978
:105AB0006A1EA64200D289E0864200D29FE000D151
:105AC000AFE01500F4E6A94200D93CE64346DE0704
:105AD00058086B081E43ED073CE601F02FF9010062
:105AE0000200153120321C2900DC2CE74B46083817
:105AF00083400025984632E701F020F903001A00A0
:105B0000153220301C2A00DCFFE65446083B0021F9
:105B10009C4005E73619013BB44200D9A6E6B242E3
:105B200000D8A3E6831E3619A0E60919013D8C4270
:105B300000D98DE68A4200D88AE6851E091987E6D3
:105B40000F222A40042A00D1BCE6291DA942AD41FA
:105B50006D42C908A844B6E6AF4200D962E6814268
:105B600004D800D05EE6AE4200D85BE602235B427A
:105B70009C46009BE0449C4665449D429B415B42A1
:105B80001B19C0184FE6B24200D812E6831E361920
:105B90000FE68A4200D8FAE5831E98460919F6E511
:105BA000244B28005B4441469D409940D0406B1EE9
:105BB0009D41434601432943D3404A0700D155E75D
:105BC0000F220A40042A00D04AE74FE71500864218
:105BD00000D06DE6009A9A4200D069E66AE6164B5C
:105BE0005B44002B00DC13E701250021A8446AE692
:105BF0005D075B021A0BC90800230D4387E5009976
:105C0000023D4A008A42BF417F423F19F619009285
:105C1000DDE78022434612031A431203034B120BA3
:105C200075E500999942EAD31500D3E7FF07000014
:105C30003E0400001E040000FF030000F0B54E46C5
:105C40004546DE4657469046E0B517001A03120B4C
:105C50000500844619480E034C0091465A00DB0F9C
:105C60009B46360B640DC90F520D844219D08242F7
:105C700010D0012094420ED14E450CD10120C445D4
:105C800009D1594517D0002C05D130002843431EB7
:105C9000984100E00120F0BCBB46B246A946A046B0
:105CA000F0BD330001202B43F5D1A242F3D14B4686
:105CB0003B43F0D1E2E70020EDE7C046FF070000DC
:105CC000F0B54746CE460400180016001B031B0B18
:105CD0002D4D4A00994680B543000F03A446B046B7
:105CE0003F0B520DC90F5B0DC00FAA4221D0AB4232
:105CF00013D0002A22D13C43002B02D14D462E4323
:105D000022D0002C10D0814222D00220013908403C
:105D10000138C0BCB946B046F0BD4D462E4329D12E
:105D2000002AF0D13C43EED10028F2D101204042BC
:105D3000EFE73D0025431DD19342EED0002BE2D189
:105D40004C462643DFD1E0E70020002CE1D0DCE721
:105D50009A420ADCE8DB4F45D7D80ED000204F45E9
:105D6000D7D20029E2D00800D3E74342584140008F
:105D70000138CEE702204042CBE7C445C5D8002019
:105D8000C445C6D2EDE7C046FF070000F0B5474660
:105D9000CE460400180016001B031B0B2C4D4A00B6
:105DA000994680B543000F03A446B0463F0B520D01
:105DB000C90F5B0DC00FAA420DD0AB4210D0002A14
:105DC00027D13C43002B11D14D462E430ED100204C
:105DD000002C15D00EE03D00254310D1934218D180
:105DE0004D462E430BD1002A02D13C43002C0BD050
:105DF000814214D0022001390840013800E002201D
:105E0000C0BCB946B046F0BD0028F9D101204042DF
:105E1000F6E7002BECD14C462643E9D1EAE79A425B
:105E200004DD4342584140000138E9E79A42EBDB88
:105E30004F45DFD806D000204F45E1D20029E5D0FC
:105E40000800DDE7C445D5D80020C445D8D2F5E721
:105E5000FF070000F0B54546DE4657464E46E0B522
:105E60001F000B031B0B9B464D00CB0F04009146FC
:105E7000984687B06D0D00D1CDE1CE4B9D4200D14B
:105E8000E9E15A46430FD2001343802212041A4319
:105E9000C3009A46C84B93469C460023002665449F
:105EA00000933C037B004846240B5B0DFF0F002B47
:105EB00000D189E1BF4A934219D0420FE400224346
:105EC000802424041443BC4A00219446424663447F
:105ED0005B190193019B7A400133C000D2B2029357
:105EE0000A2E1CDD3A000B2E5ED0474656E049468E
:105EF000B04B2143EB18019300292AD180200222C4
:105F000000012B0084461643424663447A40D2B2D5
:105F100002930A2E00DD31E2002000240221022E2D
:105F200026DC013E012E52D802294CD0012900D096
:105F300018E10023002400251B052343D207134347
:105F40002800190007B0F0BCBB46B246A946A046DF
:105F5000F0BD8021032209012B008C4616434246E6
:105F600063447A40D2B202930A2E00DD28E2032174
:105F70000125B540AC46A6266346F60035403342BF
:105F80000BD19026B600334218D1B93EFF3E1E42D7
:105F90001DD0A3468246009100E0170000993A0008
:105FA000022910D05C4650460329BFD180231B0331
:105FB0001C43240305007F4B240BBDE780240022F3
:105FC0007C4B2403B8E7002400257A4BB4E7534602
:105FD0001E04360C1F0C3300010C0004000C43435C
:105FE000984603007B43994633004B439C46434607
:105FF0000D001B0C9A467D43CC44D4440095E145EA
:1060000004D980235B0299464D44009563461B0CDE
:106010001D0063461B049C4643461B041B0C98460C
:10602000634643440393230C984633002404240C12
:1060300063439C4623007B43994643465E435F434C
:106040004E446346B2461E0C5644B14503D98023E4
:106050005B0299464F44330C99463B004B440593F1
:106060006346AC461F043F0C3604F619B44463463D
:1060700004935B461B0C9C465B461F043F0C3B0095
:1060800043439946634643439A464B4660461B0C3E
:106090009B4648437943514459448A4503D9802358
:1060A0005B029A4650440B0C9A464B461B041B0C51
:1060B00099463B0063430904454649449946634673
:1060C0005C436B439C464B461B0C98466F433F1901
:1060D00047445044BC4203D980235B029846C444E1
:1060E000049B009D98464544B542B641734298468C
:1060F0004B461E04059B3C049946360CA4194C449F
:10610000A14683466E18C1448E428941CB445D4608
:1061100049426D189C42A441C1459B418345804141
:106120008D4289415B4264421C434042039B494289
:10613000014370023F0C1843E419471EB84164182C
:106140006444F60D61023043EC0D6E020C433043A3
:10615000C90100D4F1E00121430801400B43E007ED
:10616000184364081549029B8C466344002B00DCED
:1061700097E0410709D00F210140042905D0011DF6
:1061800081428041404224180800E10106D5802167
:10619000C9008C460A4B1C40029B634409498B4250
:1061A00000DD10E76107C50864025B050D43240BA1
:1061B0005B0DC1E6FF07000001FCFFFFFF030000CD
:1061C000FFFFFFFEFE0700004B46234359D0002C83
:1061D00000D1A3E0200000F0B1FD010003000B3965
:1061E0001D22521A49461800D1404A4608388240BA
:1061F000844010000C43744AEB1A944642466344B0
:106200000193019B7A4001330021D2B202930A2EFE
:1062100000DD67E683E65B4603439A462AD05B4689
:10622000002B6DD0584600F089FD010003000B39AA
:106230001D22521A210018005D46D14008388540C1
:106240000A0084402A439346A2465F4D0026ED1A79
:106250000023009325E65B4603439A4605D10023BD
:106260009B460233082600931BE6032382460C2636
:10627000009316E600239B46013304260025009375
:106280000FE64246013301951E43019B7A400133DC
:10629000002400200121D2B202930A2E00DD21E663
:1062A0003DE60121C91A382900DD42E61F2947DDF4
:1062B0001F2625007642F31ADD402B00202905D049
:1062C0004249029D8C466544AC402043411E8841B2
:1062D000184307231D000024054003424AD00F2322
:1062E00000240340042B42D0031D834280414042DE
:1062F0002418180023023AD50123002400251BE6A8
:1063000000F01CFD01000300153120331C298FDD36
:106310000838002284409246A34696E700F00EFD1E
:1063200001000300153120331C2900DC58E702006E
:106330004C46083A002094405DE7019B029311E728
:10634000234B26009C460300029DCB406544AE4093
:106350001E430300AB40581E834130001843CC401D
:106360004307C7D00F230340042BBDD1C2E7650705
:106370006402240BC00800230543DDE50025022349
:106380000F2E0CD180245B46240323420ED02142E1
:106390000CD10C4324033A000E4B240BCCE50B2EFE
:1063A00000D0A2E58B46AA460093F7E580245B4621
:1063B00024031C43240342465546064B240BBBE5ED
:1063C0004D4621000323DBE70DFCFFFF3E040000E8
:1063D0001E040000FF070000F0B557464E46454634
:1063E000DE46E0B50D000400190010002B035B0A27
:1063F000620F1A43E3000C03640A470F2743D04C93
:106400006E00914683B04A00C0009846A246760DC1
:10641000ED0F520DC90F0190A24200D1B9E0012445
:1064200061408B468D4200D18DE0B41AA446002C09
:1064300000DCB7E0002A00D1CBE0C14A964200D18F
:1064400086E18022120417436246382A00DDA4E167
:106450001F2A00DD1DE2614620223C00521A010085
:1064600090409440421E90416246A0466446D74008
:106470004A46E1404446D21B91460C4304431C1B50
:10648000A34292414B4652429B1A9A4653461B02E4
:1064900000D42BE153465A02530A9A465346002B26
:1064A00000D166E1504600F049FC0300083B202281
:1064B0002000D21A5146D040994002009C400A4325
:1064C0009E4200DD64E19B1B591C1F2900DDFEE09C
:1064D0002023100026005B1A9C409840CE40CA4002
:1064E000631E9C413043924600260443630709D053
:1064F0000F232340042B05D0231DA342A441644253
:10650000A2441C0053461B0200D4F2E08C4B01361F
:106510009E4200D10FE153468A49E4080B4019001E
:106520005B07234372054C02240B520D12052243D4
:10653000ED072A431800110003B0F0BCBB46B24679
:10654000A946A046F0BDB41AA446002C59DD002A85
:1065500000D1B0E0564500D1FAE080221204174382
:106560006246382A00DDD4E01F2A00DCC0E1390091
:10657000203AD1406246202A06D064464022121BAF
:106580003C00944004430194019C621E94410C43DE
:10659000C3E03C0004432BD08B468D422ED06A4C86
:1065A000A446B4446446002C5FD0941BA446002E3D
:1065B00000D020E14C461C4300D1C7E161464C1E8F
:1065C000012900D123E25E4DAC4500D1D8E1A446BB
:1065D0001AE13A00024300D1E4E02200013A012C22
:1065E00000D1C3E156498C4200D1B1E094462BE77B
:1065F000012461408B468D4200D016E752498C46FB
:10660000B4446446002C00D1D3E0911B8C46002E8C
:1066100000D15EE14A498A4200D1BEE180214C4668
:1066200009040C43A1466146382900DDBAE11F295F
:1066300000DD27E22024641A4946A1401E00884656
:106640006146A340CE4041465C1EA34131431943FD
:106650000C0063464946D9407F18241884429B4168
:106660005B429A461600BA445DE0384C721C2242E6
:1066700000D0DFE04A461A43002E00D05CE1002A39
:1066800000D1CFE13A00024300D17FE11C1A4A4613
:10669000A3428941D21B4942521A9246120200D4A7
:1066A0000AE2C41AA04280414B464042FF1A3B1AFC
:1066B0009A465D461AE73A00024373D02200013A37
:1066C000012C00D1CBE0544542D0944648E710005D
:1066D0001F3BD840202903D040235B1A9A40144323
:1066E000631E9C41002300269A460443630700D0A2
:1066F000FEE65246E308520713435246B446D20818
:106700000F498C452AD01203140B62465205520DD4
:106710000CE73C000443621E9441E4189C42924101
:1067200052424A44924653461B02DFD5044B01367F
:106730009E4200D0A0E0320000240023F6E6C046CE
:10674000FF070000FFFF7FFF01F8FFFFFE070000CB
:10675000DB084A46520713434A46D2081900114340
:1067600000D1B5E18024240314432403D54A240B2B
:10677000DCE6200000F0E2FA030018331F2B00DCF7
:1067800095E622000838824000249E4200DC9AE60A
:10679000F61ACD4B1A409246A8E63C000443621E0E
:1067A00094416CE64A46DB08520713434A46D20836
:1067B000A6E7C64C721C224200D0ACE04A461A43FF
:1067C000002E00D005E1002A00D156E13A00024334
:1067D00000D1DBE01C189C429B414F44BA465B420F
:1067E0009A4453461B0200D480E75246B64B01261A
:1067F0001A4092467AE7B34CA24200D1C0E080240E
:106800004D4624042543A9466446382C53DC614692
:106810001F2C00DDCDE020251E002D1B4C46AB407B
:10682000AC40CE405D1EAB41344323434C46CC408C
:106830003F1B45E04A461C1AD11BA34292415242DB
:1068400092460A005146521A9246120200D583E03F
:106850005346234300D021E60022002553E71C18AD
:106860009C429B414F44BA465B429A4453460126A0
:106870001B0200D43AE702265246934B01211A40EC
:106880001300214062080A43DC075B089A46144360
:106890002CE63900203AD1406246202A06D06446D0
:1068A0004022121B3C00944004430194019C621E50
:1068B00094410C43E3E5494619430B005C1EA34198
:1068C000C41AA0429B415B42FB1A9A465D461600E1
:1068D000DCE54946194300D1AEE061466446013922
:1068E000012C00D1E0E0774CA44556D08C469AE6C6
:1068F000614620223C00521A944001009040A0467C
:106900006446421E90416246E1404446D7400C43F3
:106910000443B94401E76B498A4200D10CE71818D7
:1069200098429B414F445B42FB18DC0740085B08E0
:106930009A4616000443D9E6002A00D081E03B00C5
:1069400003431DD18022002512030BE7C0087B07FB
:106950005D460343FA08D3E6C41AA04280414B4681
:106960004042FF1A3B1A9A465D4697E51C1A4A4672
:10697000A3429B41D71B5B42FB1A9A46012685E541
:10698000C0087B075D460343FA08E7E64A46DB0892
:10699000520713434A46D208B5E6C0087B070343B3
:1069A000FA08DBE6494619430B00591E8B411C00CF
:1069B00053E64D46203CE540202905D04024641A8A
:1069C0004946A1400B43984643465C1EA3412B43D6
:1069D00076E7002AE1D03A00DB08024300D1B8E6AE
:1069E0004A465207802413434A462403D2082242CF
:1069F00007D0FE08264204D15D463200C3087F0757
:106A00003B43590FDB004907DB080B43A6E6C41ADA
:106A1000A04280414B464042FF1A3B1A9A465D46CF
:106A2000012633E53B00034300D115E7C0087B078F
:106A30005D460343FA0866E6C0087B070343FA088D
:106A40005EE63A00DB08024300D182E64A4652077E
:106A5000802413434A462403D208224207D0FE086A
:106A6000264204D15D463200C3087F073B43590FDD
:106A7000DB00DB0849070B4370E6C0087B070343D4
:106A8000FA0840E64C462039CC406146202906D021
:106A900066464021891B4E468E4033439846434606
:106AA000591E8B411C43D8E51C18844280414F4439
:106AB000BA4640428244D9E65346234300D1CBE64E
:106AC00014E6C046FF070000FFFF7FFFFE0700003F
:106AD0000023014A1C0029E5FF07000070B50500EE
:106AE0000C481C0316005B000A034900120B490DF9
:106AF000240B5B0D814208D0064A0020934203D14B
:106B000020003043431E984170BD01202A43FBD131
:106B1000F2E7C046FF0700000A0030B5134C5300EF
:106B200009030500090B00205B0DD20FA34204DD11
:106B30000F48834202DD0F4BD01830BD8020400348
:106B400001430D48C01A1F2808DD0C48C31AD9405C
:106B50000B005842002AF0D11800EEE7084CC5405F
:106B6000A446634499400B002B43F2E7FE03000068
:106B70001D040000FFFFFF7F33040000130400002A
:106B8000EDFBFFFF70B5002816D0C317C5185D4098
:106B9000C40F280000F0D2F8114B1B1A0A2816DC8B
:106BA00002002E00153296400B22121AD5405B05CA
:106BB0002D032D0B5B0D03E0002400230025002690
:106BC0001B052B43E40723433000190070BD0B382D
:106BD00085405B052D0300262D0B5B0DF0E7C046BD
:106BE0001E04000010B5041E10D000F0A7F80F4BD3
:106BF0001B1A0A2811DC0B222100121AD140153071
:106C00000A035B058440120B5B0D01E000230022A8
:106C10001B0513432000190010BD22000B388240D1
:106C20005B0512030024120B5B0DF1E71E0400004C
:106C30000200F0B54B000D03400F5B0DCC0F6D0A49
:106C40003A490543581CD70008420AD03849591818
:106C5000FE2916DDFF200022C0051043E407204373
:106C6000F0BD002B06D13D4326D005229201520AE9
:106C7000D8B2F1E72F43EDD08022D203FF202A4380
:106C8000EAE700291BDD9201501E8241ED007F0FD3
:106C90002A433A43530747D00F231340042B00D015
:106CA00004328023DB0413403ED0481CFE29D1D09F
:106CB0009201520AC0B2CFE700200022CCE70A00BE
:106CC00017322FDB802636042E431E256D1A1F2D0A
:106CD00011DD02225242521A3100D140202D04D03F
:106CE000144A944663449E4037433A00531E9A41E7
:106CF0000A430021CEE7104A380094466344984086
:106D00003A00411E88419E40EA4030430243002140
:106D10005307C1D180211300C90401200B400A424E
:106D2000C6D1A3E70023A0E70B009FE7FE07000002
:106D300080FCFFFFA2FCFFFF82FCFFFF1C21012360
:106D40001B04984201D3000C10391B0A984201D34E
:106D5000000A08391B09984201D30009043902A22C
:106D6000105C40187047C046040302020101010193
:106D7000000000000000000010B5002903D1FFF75B
:106D8000DDFF203002E00800FFF7D8FF10BDC0464D
:106D900080B584B000AF78603960074B1B68FB603A
:106DA000064B7A681A60044B3A681A60FB68180050
:106DB000BD4604B080BDC046B4120020B012002011
:106DC00080B584B000AF786039603B68FB60FB68D9
:106DD000002B18D07B68180003F0C0FE0300012BC5
:106DE0000ED17B68180003F011FF0300012B03D1C3
:106DF000FB6801221A6006E0FB6800221A6002E0CC
:106E0000FB6800221A60C046BD4604B080BD000089
:106E1000B0B5CAB004AFF860B9607A6094243B1989
:106E200000221A6004337C22002118000DF038FD86
:106E30002B4B8C2252009B18DB1900221A60043362
:106E40007C22002118000DF02BFDFB68012B0DD1D9
:106E50002449254A3819254B0293254B0193254B8C
:106E600000930B0080210DF0ABFB0DE01D491E4A85
:106E70009423F818204B02931D4B01931D4B009354
:106E80000B0080210DF09CFB7B68002B08D0BB68B9
:106E90001A4A79689420381800F050FF03001BE06C
:106EA0001825FF357C191423FA189423FB181100B8
:106EB000180000F0C1FE030023707B191B78012B22
:106EC00002D07B191B7807E0BA681423FB18110065
:106ED0001800FFF775FF01231800BD4646B0B0BD8E
:106EE000FCFEFFFF708A0108908A0108A08A010851
:106EF000A48A0108AC8A0108B88A0108C16D00089B
:106F000080B584B000AF78603960074B1B68FB60C8
:106F1000064B7A681A60044B3A681A60FB681800DE
:106F2000BD4604B080BDC046BC120020B81200208F
:106F300080B584B000AF78603960074B1B68FB6098
:106F4000064B7A681A60044B3A681A60FB681800AE
:106F5000BD4604B080BDC046E4120020E01200200F
:106F6000B0B5A4B000AF786000238C257A19136007
:106F70000C243B1900221A6004337C2200211800E3
:106F80000DF08EFC3A197B681100180003F0FCFD2F
:106F90000300012B09D17A1908493B1918000DF09B
:106FA00063FB031E01D1002303E08C23FB181B6845
:106FB000DBB21800BD4624B0B0BDC046CC8A010883
:106FC00080B584B000AF786039603B68FB60FB68D7
:106FD000002B18D07B68180003F0C0FD0300012BC4
:106FE0000ED17B68180003F011FE0300012B03D1C2
:106FF000FB6801221A6006E0FB6800221A6002E0CA
:10700000FB6800221A60C046BD4604B080BD000087
:10701000B0B5CAB004AFF860B9607A6094243B1987
:1070200000221A6004337C22002118000DF038FC85
:10703000224B8C2252009B18DB1900221A60043369
:107040007C22002118000DF02BFC1D491D4A381927
:10705000FB6802931C4B01931C4B00930B00802197
:107060000DF0AEFA7B68002B07D0BB68184A796830
:10707000381900F063FE03001BE01825FF357C196A
:107080001423FA189423FB181100180000F0D4FD03
:10709000030023707B191B78012B02D07B191B780E
:1070A00007E0BA681423FB1811001800FFF788FFE7
:1070B00001231800BD4646B0B0BDC046FCFEFFFF30
:1070C000708A0108D08A0108A48A0108E48A0108AC
:1070D000C16F000880B500AF034B180003F0C0FD7E
:1070E00003001800BD4680BDF401002080B582B0C9
:1070F00000AF78600A00FB1C1A70FB1C1B78802B09
:1071000003D8FB1C1B78002B07D1FB1C1A780B4BF8
:10711000110018000DF0E4F90CE0FB1C1A787968F6
:10712000074B18000DF0E7FBFB1C1B78013B044AE2
:107130000021D154BD4602B080BDC046348B010849
:107140007402002080B582B000AF78600A00FB1C9A
:107150001A70FB1C1B78802B03D8FB1C1B78002BA0
:1071600007D1FB1C1A781F4B110018000DF0B8F95D
:1071700034E01D4B1A681D4BD201D35C002B03D0A9
:107180001B4B01221A6029E01A4B1B681D2B04D8E7
:10719000184B1B685A1C174B1A60134B1B68DA01FB
:1071A000124BD018FB1C1A787B6819000DF0A3FB5A
:1071B0000D4B1A68FB1C1B78013B0C49D2018A1845
:1071C0000021D154084B1B685A1C074B1A60064B10
:1071D0001B681D2B02D9044B00221A60BD4602B069
:1071E00080BDC046648B01089003002098030020F6
:1071F000A4120020A012002080B582B000AF7860F9
:107200000A00FB1C1A707B681B787C2B07D1FB1CC7
:107210001A787B6811001800FFF794FF16E07B686E
:107220001B783E2B0CD1FB1C1A787B6811001800D0
:10723000FFF75CFF074B1B685A1C064B1A6005E002
:107240007A68054B110018000DF04AF9C046BD469A
:1072500002B080BD9C120020948B010880B582B0E2
:1072600000AF786039607B68012B09D13B68DAB2E6
:10727000054B11001800FFF7BFFF034B00221A70E7
:10728000C046BD4602B080BDF4010020B0B584B058
:1072900000AF7860234B1B68012B0AD17A68224B20
:1072A000110018000DF01CF9204B01221A60032375
:1072B00033E01C4B01221A6003F050FE02001C4B0D
:1072C0001A601A4B00221A601A4B80220021180003
:1072D0000DF0E6FA184B00221A707B681800FCF7D4
:1072E00013FF030099B20F257C19144A7B6818001C
:1072F00003F0D4FD030023707A68114B11001800CD
:107300000DF0EEF87B191B78012B05D0054B002200
:107310001A607B191B7800E001231800BD4604B0F9
:10732000B0BDC04688030020AC8B0108F4020020E9
:107330008C030020FC02002074020020881300004F
:10734000B48B010890B583B000AF786039607B687A
:1073500001221A607B6808331C003B681800FCF7A8
:10736000D3FE02003B68190020000DF0C4FA3B6810
:107370001800FCF7C9FE02007B689B1800221A72F5
:10738000C046BD4603B090BD80B586B000AF534B3C
:107390001B78002B60D0524B00221A604F4A514B91
:1073A000110018000DF09CF84C4A4F4B11001800CA
:1073B000FFF7C8FF494B00221A704C4B1B685A1E3E
:1073C0004A4B1A604A4B1B68002B00D180E0494AA7
:1073D000494B110018000DF0D0FA031E25D0474B81
:1073E0001B68391D444A100098477B68012B05D162
:1073F0003B4B01221A6000F075FD6CE03C4B1B68B2
:10740000BB603B4B00221A603C4B1A683C4B19682E
:10741000394B18009047394B00221A60384B1A68D4
:10742000BB6811000120984755E0314B1B68FB6099
:107430002F4B00221A60314B1A68314B19682E4BC2
:10744000180090472D4B00221A602D4B1A68FB68DC
:107450001100012098473BE0214B1B68012B03D012
:10746000284B1B68012B36D103F078FD03007B61AC
:10747000254B1B687A69D21A244B1B689A422AD979
:10748000224B1A68224B110018000DF029F8164BF8
:1074900004221A60124B00221A601A4B1B68012B3F
:1074A00002D1184B00221A60114B1B68002B11D01F
:1074B0000F4B1B683B610E4B00221A600F4B0022E2
:1074C0001A600F4B1A683B6911000220984701E0CF
:1074D000C04600E0C046BD4606B080BD7402002034
:1074E00088030020BC8B0108F40200209C120020BD
:1074F0007C030020C48B0108FC02002080030020D4
:1075000084030020981200208C030020000000203B
:10751000D48B010890B585B000AFD74B1B681D2BED
:1075200004D9D64B18000DF041F831E3D24B1B685B
:10753000DA01D34BD318FB60FB68002B04D1D14B8D
:1075400018000DF033F823E3CF4B1B68012B1AD141
:10755000CE4B1B68002B12D0CB4B00221A60CC4BB9
:107560001B68002B03D0CA4B1B6800221A70C74B44
:107570001A68C74B1B680F211800904703E0C54BE2
:1075800018000DF013F8FB681B78002B00D1FFE208
:10759000FB681B787C2B04D1FB6801331B78202B04
:1075A00017D0FB681800FCF7AFFD03007B60B24BFF
:1075B0001968FA68B84B18000CF092FFAE4B1B68C4
:1075C000DA01AF4BD3188022002118000DF068F9C2
:1075D000DEE2FA68B14B110018000CF081FFB04AEE
:1075E000FB68110018000DF0C8F9031E47D0AD4B21
:1075F0001B68012B21D1AB4B00221A60AA4B1B68E0
:10760000002B00D1A6E2A94B00221A60A64B1B68F2
:10761000BB60A54B00221A60A54B1A68A54B1968E0
:10762000A54B18009047A24B00221A60A14B1A6884
:10763000BB681100012098478CE2A04B1B68002B0F
:1076400000D187E29D4B1B681800FB68802219005F
:107650000DF034FA994B1B687F2200219954FB6886
:1076600000221A70964B1B68002B00D172E2944BDB
:107670001A68924B1B680E21180090476AE2914AE3
:10768000FB68110018000DF078F9031E14D08E4B22
:107690001B68002B00D15DE28B4B1C68FB68180057
:1076A00000F0A6FD03002370884B1A68864B1B6808
:1076B0000121180090474DE2854AFB68110018002F
:1076C0000DF05BF9031E19D0824B1B68002B00D113
:1076D00040E2804B1C68FB681800FFF741FC030088
:1076E00023707D4B1B68002B00D133E27A4B1A6864
:1076F000784B1B680321180090472BE2774AFB6800
:10770000110018000DF039F9031E00D1C1E1744ACF
:10771000FB68110018000DF030F9031E1BD0714BEF
:107720001B68002B00D115E26E4B1A68FB68110034
:10773000180001F051F9FB6800221A706A4B1B68AF
:10774000002B00D106E2684B1A68664B1B680421C7
:1077500018009047FEE1654AFB68110018000DF023
:107760000CF9031E1BD0624B1B68002B00D1F1E10A
:107770005F4B1A68FB681100180001F01FFBFB68E3
:1077800000221A705B4B1B68002B00D1E2E1594BC1
:107790001A68574B1B68052118009047DAE1564AD2
:1077A000FB68110018000DF0E8F8031E1BD0534BC6
:1077B0001B68002B00D1CDE1504B1A68FB6811000B
:1077C000180001F065FCFB6800221A704C4B1B6826
:1077D000002B00D1BEE14A4B1A68484B1B680621BA
:1077E00018009047B6E1474AFB68110018000DF0F9
:1077F000C4F8031E1BD0444B1B68002B00D1A9E129
:10780000414B1A68FB681100180001F00DFEFB687F
:1078100000221A703D4B1B68002B00D19AE13B4BB4
:107820001A68394B1B6807211800904792E1384AC3
:10783000FB68110018000DF0A0F8031E6ED0354B48
:107840001B68002B00D185E1324B1A68FB681100E0
:10785000180001F037FFFB6800221A702E4B1B68DE
:10786000002B00D176E12C4B1A682A4B1B680821AB
:10787000180090476EE1C04694030020F08B010889
:10788000980300202C8C0108A4120020241300204F
:1078900020130020508C0108748C0108888C01088A
:1078A000908C0108981200207C030020880300209F
:1078B0008003002084030020FC0200201813002015
:1078C0001C1300209C8C0108A8120020AC12002080
:1078D000A88C0108B0120020B4120020B48C01085A
:1078E000B88C0108B8120020BC120020BC8C010822
:1078F000C0120020C4120020C08C0108C812002051
:10790000CC120020C48C0108D0120020D412002018
:10791000C88C0108D8120020DC1200209E4AFB68A7
:10792000110018000DF029F8031E1BD09B4B1B689B
:10793000002B00D10EE1994B1A68FB68110018006A
:1079400002F0E6F8FB6800221A70954B1B68002BCA
:1079500000D1FFE0924B1A68904B1B680921180078
:107960009047F7E08F4AFB68110018000DF005F80A
:10797000031E1BD08C4B1B68002B00D1EAE08A4B06
:107980001A68FB681100180002F090FAFB680022E8
:107990001A70864B1B68002B00D1DBE0834B1A6802
:1079A000814B1B680A2118009047D3E0804AFB688E
:1079B000110018000CF0E1FF031E1BD07D4B1B686B
:1079C000002B00D1C6E07B4B1A68FB681100180041
:1079D00002F0F2FBFB6800221A70774B1B68002B49
:1079E00000D1B7E0744B1A68724B1B680B2118006A
:1079F0009047AFE0714AFB68110018000CF0BDFF22
:107A0000031E1BD06E4B1B68002B00D1A2E06C4BF9
:107A10001A68FB681100180002F00CFDFB680022D8
:107A20001A70684B1B68002B00D193E0654B1A68F5
:107A3000634B1B681021180090478BE0624AFB687B
:107A4000110018000CF099FF031E1BD05F4B1B6840
:107A5000002B00D17EE05D4B1A68FB681100180016
:107A600002F0B2FEFB6800221A70594B1B68002B13
:107A700000D16FE0564B1A68544B1B681121180057
:107A8000904767E0FA68534B110018000CF028FD8E
:107A900060E0514AFB68110018000CF06EFF031EF5
:107AA00016D04E4B1B68002B54D0FB6800221A7076
:107AB0004A4B1B6800221A70494B1B68002B49D0A7
:107AC000474B1A68454B1B680D211800904741E051
:107AD000444AFB68110018000CF04FFF031E1AD037
:107AE000414B1B68002B35D03F4B1C68FB681800CE
:107AF00000F0E4FE03002370FB6800221A703B4B89
:107B00001B68002B26D0394B1A68374B1B680221A3
:107B1000180090471EE0364B1B68002B1AD0344BE0
:107B20001B681800FB68802219000CF0C7FF304B5F
:107B30001B687F2200219954FB6800221A702D4B8C
:107B40001B68002B06D02B4B1A68294B1B680E2193
:107B500018009047FB6800221A70274B1B68DA0157
:107B6000264BD3188022002118000CF099FE224BDE
:107B70001B685A1C204B1A601F4B1B681D2B02D917
:107B80001D4B00221A601E4B1B685A1E1C4B1A60AC
:107B9000BD4605B090BDC046CC8C0108E012002067
:107BA000E4120020D08C0108E8120020EC12002022
:107BB000D48C0108F0120020F4120020D88C0108A7
:107BC000FC12002000130020E08C010804130020A8
:107BD00008130020E88C0108FC8C0108F812002032
:107BE0000C1300200C8D010810130020141300202A
:107BF000181300201C130020940300209803002079
:107C0000A012002080B500AF094B1B78012B08D1D2
:107C1000084B18000CF0CAFCFFF75CFA044B00227A
:107C20001A70FFF7B1FBFFF775FCC046BD4680BD7B
:107C3000281300201C8D0108B0B584B000AF786017
:107C40003960194B194A1A600F257C197B68180096
:107C5000FFF71CFB030023707B191B78012B04D05A
:107C60007B191B781BE0FFF7CDFF114B1B68012B25
:107C7000F9D0104B1B68042B01D102230FE00E49F1
:107C80003B68802218000CF036FE0B4B1800FCF706
:107C90003BFA02003B689B1800221A70012318006F
:107CA000BD4604B0B0BDC0460000002088130000EF
:107CB00088030020F4020020FC020020B0B586B04A
:107CC00000AFF860B9607A60184B7A681A601725BF
:107CD0007C19FB681800FFF7D9FA030023707B19A1
:107CE0001B78012B04D07B191B781BE0FFF78AFF60
:107CF0000F4B1B68012BF9D00E4B1B68042B01D1D5
:107D000002230FE00C49BB68802218000CF0F3FD41
:107D1000094B1800FCF7F8F90200BB689B18002219
:107D20001A7001231800BD4606B0B0BD0000002047
:107D300088030020F4020020FC020020B0B586B0C9
:107D400000AFF860B9607A603B60104B104A1A606F
:107D500017257C19FB681800FFF798FA03002370B9
:107D60007B191B78012B02D07B191B7809E0094B8A
:107D7000BA681A60084B7A681A60084B3A681A6049
:107D800001231800BD4606B0B0BDC046000000206B
:107D9000881300007C03002080030020840300205F
:107DA000B0B586B000AFF860B9607A603B60104B48
:107DB000BA6A1A6017257C19FB681800FFF766FA83
:107DC000030023707B191B78012B02D07B191B78D1
:107DD00009E0084BBA681A60074B7A681A60074BCB
:107DE0003A681A6001231800BD4606B0B0BDC0460F
:107DF000000000207C03002080030020840300207A
:107E000080B582B000AF144B01221A60134B144AA4
:107E10001A6003F0A3F80200124B1A6003F09EF8F8
:107E200003007B600C4B1B68002B0FD0FFF7EAFEB2
:107E300003F094F802007B68D31A094A9342F1D9FF
:107E4000094B18000CF0B2FB022301E0C0460123ED
:107E50001800BD4602B080BD98120020000000202E
:107E6000102700008C030020348D010880B584B0F9
:107E700000AFF860B9607A60114B1B68012B05D127
:107E8000104B18000CF092FB032314E00E4B0F4A2A
:107E90001A600F4B01221A600E4BFA681A600E4BE3
:107EA000BA681A600D4B7A681A6003F057F802003E
:107EB0000B4B1A6001231800BD4604B080BDC046BC
:107EC00088030020548D01080000002010270000C6
:107ED000981200207C0300208003002084030020EF
:107EE0008C03002080B500AF044B01221A60044BC4
:107EF000044A1A6001231800BD4680BD9812002074
:107F0000000000201027000080B500AFFFF77AFEC8
:107F1000C046BD4680BD80B584B000AF7860396092
:107F20003B68FB60FB6801221A60C046BD4604B096
:107F300080BD000090B587B000AFF860B9607A608E
:107F4000FB68012B26D1444B18000CF02FFBFFF7E8
:107F5000C1F8012002F0CDFE012002F0ADFE7B68E9
:107F6000002B0FD11723FC18FFF74AFF03002370E3
:107F7000BB68002B02D0BB6801221A601723FB18D4
:107F80001B7864E0BA6835497B681800FFF76EFF1C
:107F900003005CE0FB68002B18D1002002F08CFE8F
:107FA000002002F0A6FE2E4B18000CF0FFFABB6872
:107FB000002B02D0BB6801221A607B68002B45D0E1
:107FC000BA687B681100012098473FE0FB68022BEC
:107FD0001AD1244B18000CF0E9FA002002F089FEB7
:107FE000012002F069FE02F0A1FEBB68002B02D066
:107FF000BB6801221A607B68002B27D0BA687B68B7
:1080000011000120984721E0FB68032B1AD1164B81
:1080100018000CF0CBFA012002F06BFE012002F0F8
:108020004BFE02F083FEBB68002B02D0BB6801222E
:108030001A607B68002B09D0BA687B6811000120A8
:10804000984703E0094B18000CF0B0FA0123180020
:10805000BD4607B090BDC046648D0108177F00087B
:10806000788D0108908D0108B88D0108E08D010818
:1080700080B584B000AF786039603B68FB60FB6816
:10808000002B18D07B68180002F068FD0300012B5C
:108090000ED17B68180002F0B9FD0300012B03D15B
:1080A000FB6801221A6006E0FB6800221A6002E009
:1080B000FB6800221A60C046BD4604B080BD0000C7
:1080C000B0B5CAB004AFF860B9607A6094243B19C7
:1080D00000221A6004337C22002118000CF0E0FB1F
:1080E0002D4B8C256D005B19DB1900221A600433BF
:1080F0007C22002118000CF0D3FB284B5B19DB1904
:10810000274A12781A7001229B18022200211800B7
:108110000CF0C6FBFB68234A1025781903210CF0EC
:108120004FFA2149214A38197B190293204B0193B8
:10813000204B00930B0080210CF042FA7B68002B4F
:1081400009D0BB681C4A796838191C4C0094FFF7A9
:1081500027FE03001BE01825FF357C19174A14235E
:10816000F9189423FB181800FFF7A8FD03002370EB
:108170007B191B78012B02D07B191B7807E0BA68AA
:108180001423FB1811001800FFF772FF01231800D9
:10819000BD4646B0B0BDC046FCFEFFFFF8FEFFFF87
:1081A000308E0108048E01080C8E0108108E010823
:1081B000208E0108248E010871800008102700001D
:1081C00080B584B000AF78603960074B1B68FB60F6
:1081D000054B3A681A60054B7A681A60FB6818000C
:1081E000BD4604B080BDC046AC120020A8120020DD
:1081F00080B582B000AF78607B68002B01D10E2380
:1082000092E04B4A7B68110018000CF0B6FB031E8D
:1082100001D0002388E0474A7B68110018000CF069
:10822000ACFB031E01D001237EE0434A7B681100B2
:1082300018000CF0A2FB031E01D0022374E03F4A99
:108240007B68110018000CF098FB031E01D003237B
:108250006AE03B4A7B68110018000CF08EFB031E9D
:1082600001D0042360E0374A7B68110018000CF04D
:1082700084FB031E01D0052356E0334A7B681100BE
:1082800018000CF07AFB031E01D006234CE02F4AA5
:108290007B68110018000CF070FB031E01D007234F
:1082A00042E02B4A7B68110018000CF066FB031EAD
:1082B00001D0082338E0274A7B68110018000CF031
:1082C0005CFB031E01D009232EE0234A7B681100CA
:1082D00018000CF052FB031E01D00A2324E01F4AB1
:1082E0007B68110018000CF048FB031E01D00B2323
:1082F0001AE01B4A7B68110018000CF03EFB031EBD
:1083000001D00D2310E0174A7B68110018000CF013
:1083100034FB031E01D00C2306E07A68124B1100D7
:1083200018000CF0DDF80E231800BD4602B080BD29
:10833000688E0108708E0108808E0108948E0108F5
:10834000A08E0108B08E0108C08E0108D48E0108ED
:10835000E48E0108F48E0108088F0108188F0108C7
:10836000288F01083C8F0108488F0108B0B5A4B0E0
:1083700000AF786039603B688C243A1913603B1970
:108380001B68002B3FD07B68180002F0E7FB03005E
:10839000012B32D108257B1900221A6004337C227C
:1083A000002118000CF07CFA7A197B681100180083
:1083B00002F0EAFB031E19D000238822B9180B60D3
:1083C000BA1813497B1918000CF04EF9031E05D199
:1083D0003B191B68012252421A6014E08823FB18E3
:1083E0001A688C23FB181B681A600CE08C23FB189E
:1083F0001B68012252421A6005E08C23FB181B689F
:10840000012252421A60C046BD4624B0B0BDC046EB
:10841000C88F0108B0B5CCB004AFF860B9607A601D
:108420009C243B1900221A6004337C22002118008E
:108430000CF036FA2B4B90256D005B19DB190022EE
:108440001A6004337C22002118000CF029FA264B14
:108450005B19DB1900221A60043303220021180083
:108460000CF01EFAFB68214A1425781907210CF03C
:10847000A7F81F491F4A38197B1902931E4B019315
:108480001E4B00930B0080210CF09AF87B68002BA8
:1084900007D0BB681A4A79683819FFF74FFC030008
:1084A0001BE02025FF357C191C23FA189C23FB18A0
:1084B00011001800FFF7C0FB030023707B191B7825
:1084C000012B02D07B191B7807E0BA681C23FB182C
:1084D00011001800FFF74AFF01231800BD4648B0FD
:1084E000B0BDC046FCFEFFFFF4FEFFFFD08F0108C9
:1084F0000C8E0108108E0108448E0108D88F0108E7
:108500006D83000880B584B000AF786039603B6847
:10851000FB60FB68002B18D07B68180002F01EFB84
:108520000300012B0ED17B68180002F06FFB0300E3
:10853000012B03D1FB6801221A6006E0FB680022D0
:108540001A6002E0FB6800221A60C046BD4604B013
:1085500080BD0000B0B5EAB004AFF860B9607A60E1
:108560008A2464003B1900221A6004337C22002113
:1085700018000CF095F92E4BCC256D005B19DB191A
:1085800000221A6004337C22002118000CF088F9C4
:10859000284B5B19DB1900221A6004337C2200216E
:1085A00018000CF07DF9FB681968FB685B68224ACB
:1085B0001425781900930B0080210CF001F81F4955
:1085C0001F4A38197B1902931E4B01931E4B0093CF
:1085D0000B0080210BF0F4FF7B68002B07D0BB68F9
:1085E0001A4A79683819FFF7A9FB03001CE098259F
:1085F000FF357C199423FA188A235B00FB181100BD
:108600001800FFF719FB030023707B191B78012B5F
:1086100002D07B191B7807E0BA689423FB1811007D
:108620001800FFF76FFF01231800BD4666B0B0BD0C
:10863000FCFEFFFF7CFEFFFFE48F01080C8E0108AB
:10864000108E0108208E0108D88F010805850008CA
:1086500080B584B000AF78603960074B1B68FB6061
:10866000054B3A681A60054B7A681A60FB68180077
:10867000BD4604B080BDC0461C1300201813002066
:1086800080B584B000AF78603960074B1B68FB6031
:10869000054B3A681A60054B7A681A60FB68180047
:1086A000BD4604B080BDC046241300202013002026
:1086B00080B584B000AF78603960074B1B68FB6001
:1086C000054B3A681A60054B7A681A60FB68180017
:1086D000BD4604B080BDC0460C130020F812002037
:1086E00080B584B000AF786039603B68FB60FB68A0
:1086F000002B18D07B68180002F030FA0300012B21
:108700000ED17B68180002F081FA0300012B03D11F
:10871000FB6801221A6006E0FB6800221A6002E092
:10872000FB6800221A60C046BD4604B080BD000050
:10873000B0B5CAB002AFF860B9607A6098243B194E
:1087400000221A6004337C22002118000CF0A8F8E3
:10875000464B902252009B18DB1900221A6004330A
:108760007C22002118000CF09BF8BB680422002139
:1087700018000CF095F83E493E4A38193E4B0193DB
:108780003E4B00930B0080210BF01AFF00238E223A
:108790005200BA18136027E0FB685A1CFA608D215A
:1087A00049007A181B7813700A00BB181B781B0944
:1087B000DBB21900BB181B780F221340304A142477
:1087C000381900930B0003210BF0FAFE3919982396
:1087D000FB18032218000CF079F88E225200BB1807
:1087E0001B680133BA1813608E235B00FB181B68EB
:1087F0000F2BD1D998243B191800FBF785FC0300F7
:108800001A003B199A181F4B1000190003231A0075
:108810000CF054F97B68002B07D0BB681A4A7968C2
:108820003819FFF78BFA03001BE01C25FF357C1974
:108830001823FA189823FB1811001800FFF7FCF909
:10884000030023707B191B78012B02D07B191B7846
:1088500007E0BA681823FB1811001800FFF740FF63
:1088600001231800BD4648B0B0BDC046F8FEFFFF6A
:108870001C900108209001082C90010830900108FC
:108880003890010840900108E186000880B584B066
:1088900000AF78603960074B1B68FB60054B3A6896
:1088A0001A60054B7A681A60FB681800BD4604B070
:1088B00080BDC046141300201013002090B5A3B053
:1088C00000AF786008243B1900221A6004337C2230
:1088D000002118000BF0E4FF3A197B681100180022
:1088E00002F052F9174A3B19110018000CF045F834
:1088F000031E01D0012321E0134A0823FB181100B5
:1089000018000CF03AF8031E01D0022316E00F4ABB
:108910000823FB18110018000CF02FF8031E01D0DB
:1089200000230BE00A4A0823FB18110018000CF082
:1089300024F8031E01D0032300E003231800BD46E2
:1089400023B090BD949001089C900108A490010868
:10895000A890010880B584B000AF786001235B4225
:10896000FB600023BB607B68002B2FD002E07B689C
:1089700001337B607B681B78242B03D07B681B78DA
:10898000002BF4D17B681B78242B1CD17B6801332E
:108990007B607B681B78002B17D07B681B782A2BA9
:1089A00002D1BB68FB6011E07B681B78242BEDD003
:1089B0007B681B785E2BE9D07B681B781A00BB684C
:1089C0005340BB60E2E7FB6801E0C046FB6818006B
:1089D000BD4604B080BD000090B591B000AF786096
:1089E00039600023FB637B68002B02D03B68002BBF
:1089F00001D1FB6BDEE13B685C22002118000BF02B
:108A00004FFF7B68BB633323FB1800221A70C6E15B
:108A10000C243B192022002118000BF041FFD34AFF
:108A2000BB6B110018000BF07AFF0300FB62FB6ABE
:108A3000002B1BD13323FB181B780F2B00D0B5E183
:108A4000BB6B1800FBF760FB0300032B00D8AFE102
:108A5000B96B3B19022218000BF04DFF02237B6318
:108A60003A197B6BD31800221A7017E0FA6ABB6BB5
:108A7000D31A7B637B6B1F2B0BD87A6BB96B0C24DF
:108A80003B1918000BF037FF3A197B6BD318002203
:108A90001A707B6B0133BA6BD318BB637B6B002BF3
:108AA00000D176E13323FB181B780F2B00D93EE170
:108AB0009A00AF4BD3181B689F463A683B68033354
:108AC000AC490C2038180BF0CFFD031E00D030E16C
:108AD0003B680322002118000BF0E2FE3B680333E1
:108AE0000422002118000BF0DBFE22E13B68DA1DB6
:108AF000A1490C23FB1818000BF0B6FD031E00D093
:108B000019E13B6807330A22002118000BF0C8FE68
:108B100011E13B6811331A0098490C23FB18180027
:108B20000BF0A2FD031E00D007E13B6811330B22BE
:108B3000002118000BF0B4FEFFE03B681C331A0064
:108B40008F490C23FB1818000BF08EFD031E00D07C
:108B5000F5E03B681C330222002118000BF0A0FE58
:108B6000EDE03B681E331A0084490C23FB18180003
:108B70000BF07AFD031E00D0E3E03B681E330B22AE
:108B8000002118000BF08CFEDBE03B6829331A0053
:108B90007B490C23FB1818000BF066FD031E00D068
:108BA000D1E03B6829330222002118000BF078FE47
:108BB000C9E03B682C331A0072490C23FB181800DB
:108BC0000BF052FD031E00D0BFE03B680022DA62CA
:108BD000BBE03B6830331A006A490C23FB181800CD
:108BE0000BF042FD031E00D0B1E03B6800221A6387
:108BF000ADE03B6834331A0063490C23FB181800BE
:108C00000BF032FD031E00D0A3E03B6800225A6344
:108C10009FE03B6838331A005B490C23FB181800AF
:108C20000BF022FD031E00D095E03B6800229A6302
:108C300091E03B683C331A0051490C23FB181800A3
:108C40000BF012FD031E00D087E03B683C3302228C
:108C5000002118000BF024FE7FE03B6840331A002F
:108C600049490C23FB1818000BF0FEFC031E00D032
:108C700075E03B6800221A6471E03B6844331A00D7
:108C80003F490C23FB1818000BF0EEFC031E00D02C
:108C900067E03B6844330222002118000BF000FE1D
:108CA0005FE03B6846331A0033490C23FB18180079
:108CB0000BF0DAFC031E56D13B6846330A22002132
:108CC00018000BF0EDFD4EE03B6850331A002D49C3
:108CD0000C23FB1818000BF0C7FC031E58D13B688F
:108CE00000221A6554E03B6854331A0027490C23CC
:108CF000FB1818000BF0B8FC031E03D13B680022E0
:108D00005A6511E07B681800FFF724FE02003B68FB
:108D10005B6D9A4204D13B6858220121995403E0CB
:108D20003B685822002199540123FB6331E0C0467F
:108D30002FE0C0462DE0C0462BE0C04629E0C046EB
:108D400027E0C04625E0C04623E0C04621E0C046FB
:108D50001FE0C0461DE0C0461BE0C04619E0C0460B
:108D600017E0C04615E0C04613E0C0460091010878
:108D70004093010804910108109101081491010821
:108D80001C9101082091010824910108E890010834
:108D9000C04633217B181A787B1801321A703323AE
:108DA000FB181B780F2B00D832E602E0C04600E02B
:108DB000C046FB6B1800BD4611B090BD90B591B098
:108DC00000AF786039600023FB637B68002B02D022
:108DD0003B68002B01D1FB6B48E13B683822002146
:108DE00018000BF05DFD7B68BB633323FB1800228A
:108DF0001A7030E10C243B192022002118000BF0DE
:108E00004FFD9C4ABB6B110018000BF088FD03005E
:108E1000FB62FB6A002B1BD13323FB181B78082B4A
:108E200000D01FE1BB6B1800FBF76EF90300032BAA
:108E300000D819E1B96B3B19022218000BF05BFD59
:108E400002237B633A197B6BD31800221A7017E058
:108E5000FA6ABB6BD31A7B637B6B1F2B0BD87A6BC5
:108E6000B96B0C243B1918000BF045FD3A197B6BCC
:108E7000D31800221A707B6B0133BA6BD318BB6313
:108E80007B6B002B00D1E0E03323FB181B78082B11
:108E900000D9C9E09A00784BD3181B689F463A68FE
:108EA0003B68033375490C2038180BF0DDFB031EBB
:108EB00000D0BBE03B680322002118000BF0F0FC5F
:108EC0003B6803330422002118000BF0E9FCADE0FD
:108ED0003B68DA1D6A490C23FB1818000BF0C4FB31
:108EE000031E00D0A4E03B6807330B2200211800CA
:108EF0000BF0D6FC9CE03B6812331A0061490C234E
:108F0000FB1818000BF0B0FB031E00D092E03B688A
:108F100012330222002118000BF0C2FC8AE03B68E9
:108F200014331A0056490C23FB1818000BF09CFB55
:108F3000031E00D080E03B6814330B220021180090
:108F40000BF0AEFC78E03B681F331A004D490C2350
:108F5000FB1818000BF088FB031E00D06EE03B6886
:108F60001F330222002118000BF09AFC66E03B68D8
:108F700021331A0044490C23FB1818000BF074FB32
:108F8000031E5DD13B6821330A22002118000BF03B
:108F900087FC55E03B682B331A003A490C23FB1839
:108FA00018000BF061FB031E4CD13B682B330222EF
:108FB000002118000BF074FC44E03B682D331A00CC
:108FC00030490C23FB1818000BF04EFB031E3BD15D
:108FD0003B682D330222002118000BF061FC33E0C6
:108FE0003B6830331A0029490C23FB1818000BF09A
:108FF0003BFB031E03D13B6800221A6311E07B6830
:109000001800FFF7A7FC02003B681B6B9A4204D1D3
:109010003B6834220121995403E03B68342200214B
:1090200099540123FB6310E0C0460EE0C0460CE0FB
:10903000C0460AE0C04608E0C04606E0C04604E07C
:10904000C04602E0C04600E0C04633217B181A78D3
:109050007B1801321A703323FB181B78082B00D8B9
:10906000C8E602E0C04600E0C046FB6B1800BD4603
:1090700011B090BD0091010880930108049101088E
:10908000149101081C91010810910108E890010851
:1090900090B591B000AF786039600023FB637B68C6
:1090A000002B02D03B68002B01D1FB6BA4E13B6895
:1090B0005822002118000BF0F3FB7B68BB633323BD
:1090C000FB1800221A708CE10C243B19202200218D
:1090D00018000BF0E5FBCA4ABB6B110018000BF03F
:1090E0001EFC0300FB62FB6A002B1BD13323FB1821
:1090F0001B780F2B00D07BE1BB6B1800FBF704F84B
:109100000300032B00D875E1B96B3B19022218004C
:109110000BF0F1FB02237B633A197B6BD31800221F
:109120001A7017E0FA6ABB6BD31A7B637B6B1F2B39
:109130000BD87A6BB96B0C243B1918000BF0DBFBD6
:109140003A197B6BD31800221A707B6B0133BA6B10
:10915000D318BB637B6B002B00D13CE13323FB189E
:109160001B780F2B00D919E19A00A64BD3181B6866
:109170009F463A683B680333A3490C2038180BF02C
:1091800073FA031E00D00DE13B6803220021180092
:109190000BF086FB3B6803330422002118000BF020
:1091A0007FFBFFE03B68DA1D98490C23FB18180091
:1091B0000BF05AFA031E00D0F6E03B6807330A2290
:1091C000002118000BF06CFBEEE03B6811331A0035
:1091D0008F490C23FB1818000BF046FA031E00D031
:1091E000E4E03B6811330B22002118000BF058FB20
:1091F000DCE03B681C331A0086490C23FB1818007E
:109200000BF032FA031E00D0D2E03B681C3302227E
:10921000002118000BF044FBCAE03B681E331A0023
:109220007B490C23FB1818000BF01EFA031E00D01C
:10923000C0E03B681E330B22002118000BF030FB0E
:10924000B8E03B6829331A0072490C23FB18180058
:109250000BF00AFA031E00D0AEE03B68293302226D
:10926000002118000BF01CFBA6E03B682B331A0012
:1092700069490C23FB1818000BF0F6F9031E00D007
:109280009CE03B682B330322002118000BF008FB05
:1092900094E03B6830331A0060490C23FB18180037
:1092A0000BF0E2F9031E00D08AE03B6800221A634B
:1092B00086E03B6834331A0059490C23FB18180028
:1092C0000BF0D2F9031E00D07CE03B6800225A6309
:1092D00078E03B6838331A0051490C23FB1818001A
:1092E0000BF0C2F9031E00D06EE03B6800229A63C7
:1092F0006AE03B683C331A0049490C23FB1818000C
:109300000BF0B2F9031E61D13B680022DA635DE025
:109310003B6840331A003D490C23FB1818000BF042
:10932000A3F9031E54D13B6840330A2200211800E0
:109330000BF0B6FA4CE03B684C331A0037490C236B
:10934000FB1818000BF090F9031E43D13B68002274
:10935000DA643FE03B6850331A0032490C23FB18B3
:1093600018000BF081F9031E03D13B6800221A6537
:1093700011E07B681800FFF7EDFA02003B681B6DF7
:109380009A4204D13B6854220121995403E03B687E
:109390005422002199540123FB631CE0C0461AE0CB
:1093A000C04618E0C04616E0C04614E0C04612E0D1
:1093B000C04610E0C0460EE0C0460CE0C0460AE0E1
:1093C000C04608E0C04606E0C04604E0C04602E0F1
:1093D000C04600E0C04633217B181A787B18013262
:1093E0001A703323FB181B780F2B00D86CE602E0B1
:1093F000C04600E0C046FB6B1800BD4611B090BDF2
:1094000000910108A493010804910108109101083A
:10941000149101081C91010828910108209101086C
:1094200024910108E890010890B591B000AF7860F0
:1094300039600023FB630023FB627B68002B02D0B2
:109440003B68002B01D1FB6B2AE13B6850220021D5
:1094500018000BF025FA7B68BB633323FB1800224E
:109460001A7012E108243B192022002118000BF089
:1094700017FA8D4ABB6B110018000BF050FA03006D
:10948000BB62BB6A002B1BD13323FB181B78122B4A
:1094900000D001E1BB6B1800FAF736FE0300032B86
:1094A00000D8FBE0B96B3B19022218000BF023FA3D
:1094B00002237B633A197B6BD31800221A7017E0E2
:1094C000BA6ABB6BD31A7B637B6B1F2B0BD87A6B8F
:1094D000B96B08243B1918000BF00DFA3A197B6B95
:1094E000D31800221A707B6B0133BA6BD318BB639D
:1094F0007B6B002B00D1C2E03323FB181B78122BAF
:1095000000D9AFE09A00694BD3181B689F463A68B0
:109510003B6803336649082038180BF0A5F8031E92
:1095200000D0A1E03B680322002118000BF0B8F93D
:109530003B6803330422002118000BF0B1F993E0DB
:109540003B68DA1D5B490823FB1818000BF08CF808
:10955000031E00D08AE03B68073302220021180076
:109560000BF09EF982E03B6809331A005149082349
:10957000FB1818000BF078F8031E00D078E03B6869
:1095800009330222002118000BF08AF970E0FB6A0F
:1095900002339B003A68D3181A1D47490823FB1869
:1095A00018000BF061F8031E07D13A68FB6A02331A
:1095B0009B00D318043300221A60FB6A0133FB625C
:1095C0005DE03B683C331A003C490823FB18180057
:1095D0000BF04AF8031E4DD13B680022DA6349E0E4
:1095E0003B6840331A0035490823FB1818000BF07C
:1095F0003BF8031E40D13B6800221A643CE03B6804
:1096000044331A002D490823FB1818000BF02CF8DE
:10961000031E33D13B6800225A642FE03B68483375
:109620001A0027490823FB1818000BF01DF8031E29
:1096300003D13B6800229A6411E07B681800FFF7B1
:1096400089F902003B689B6C9A4204D13B684C222A
:109650000121995403E03B684C22002199540123D5
:10966000FB630CE0C0460AE0C04608E0C04606E0E6
:10967000C04604E0C04602E0C04600E0C0463321D8
:109680007B181A787B1801321A703323FB181B7869
:10969000122B00D8E6E602E0C04600E0C046FB6BB5
:1096A0001800BD4611B090BD00910108E493010877
:1096B000049101081C9101082091010824910108DE
:1096C000E890010890B591B000AF78603960002350
:1096D000FB637B68002B02D03B68002B01D1FB6B46
:1096E00011E23B685C22002118000BF0D9F87B687E
:1096F000BB633323FB1800221A70F9E10C243B19D9
:109700002022002118000BF0CBF8D24ABB6B1100CD
:1097100018000BF004F90300FB62FB6A002B1BD15D
:109720003323FB181B78142B00D0E8E1BB6B180027
:10973000FAF7EAFC0300032B00D8E2E1B96B3B190E
:10974000022218000BF0D7F802237B633A197B6BD7
:10975000D31800221A7017E0FA6ABB6BD31A7B6326
:109760007B6B1F2B0BD87A6BB96B0C243B19180041
:109770000BF0C1F83A197B6BD31800221A707B6B7F
:109780000133BA6BD318BB637B6B002B00D1A9E10B
:109790003323FB181B78142B00D97AE19A00AE4BC7
:1097A000D3181B689F463A683B680333AB490C20CB
:1097B00038180AF059FF031E00D06CE13B68032201
:1097C000002118000BF06CF83B68033304220021E1
:1097D00018000BF065F85EE13B6808331A00A049F9
:1097E0000C23FB1818000AF03FFF031E00D054E1C1
:1097F0003B6800229A6050E13B680C331A0098499C
:109800000C23FB1818000AF02FFF031E00D046E1BE
:109810003B680022DA6042E13B6810331A0090494D
:109820000C23FB1818000AF01FFF031E00D038E1BC
:109830003B6800221A6134E13B6814331A008849FE
:109840000C23FB1818000AF00FFF031E00D02AE1BA
:109850003B6800225A6126E13B6818331A008049B0
:109860000C23FB1818000AF0FFFE031E00D01CE1B9
:109870003B6800229A6118E13B681C331A00784962
:109880000C23FB1818000AF0EFFE031E00D00EE1B7
:109890003B680022DA610AE13B6820331A00704914
:1098A0000C23FB1818000AF0DFFE031E00D000E1B5
:1098B0003B6800221A62FCE03B6824331A006849C6
:1098C0000C23FB1818000AF0CFFE031E00D0F2E0B4
:1098D0003B6800225A62EEE03B6828331A00604978
:1098E0000C23FB1818000AF0BFFE031E00D0E4E0B2
:1098F0003B6800229A62E0E03B682C331A0058492A
:109900000C23FB1818000AF0AFFE031E00D0D6E0AF
:109910003B680022DA62D2E03B6830331A005049DB
:109920000C23FB1818000AF09FFE031E00D0C8E0AD
:109930003B6800221A63C4E03B6834331A0048498C
:109940000C23FB1818000AF08FFE031E00D0BAE0AB
:109950003B6800225A63B6E03B6838331A0040493E
:109960000C23FB1818000AF07FFE031E00D0ACE0A9
:109970003B6800229A63A8E03B683C331A003849F0
:109980000C23FB1818000AF06FFE031E00D09EE0A7
:109990003B680022DA639AE03B6840331A003049A2
:1099A0000C23FB1818000AF05FFE031E00D090E0A5
:1099B0003B6800221A648CE03B6844331A00284953
:1099C0000C23FB1818000AF04FFE031E00D082E0A3
:1099D0003B6800225A647EE03B6848331A00204905
:1099E0000C23FB1818000AF03FFE031E00D074E0A1
:1099F0003B6800229A6470E03B684C331A001849B7
:109A00000C23FB1818000AF02FFE031E00D066E09E
:109A10003B680022DA6462E03B6850331A00104968
:109A20000C23FB1818000AF01FFE031E59D13B68D7
:109A300000221A6555E03B6854331A0009490C238B
:109A4000FB1818000AF010FE031E0DD13B6800221F
:109A50005A651BE000910108309401080491010847
:109A600020910108E89001087B681800FEF772FF5A
:109A700002003B685B6D9A4204D13B685822012189
:109A8000995403E03B685822002199540123FB6359
:109A900028E0C04626E0C04624E0C04622E0C0469A
:109AA00020E0C0461EE0C0461CE0C0461AE0C046AA
:109AB00018E0C04616E0C04614E0C04612E0C046BA
:109AC00010E0C0460EE0C0460CE0C0460AE0C046CA
:109AD00008E0C04606E0C04604E0C04602E0C046DA
