:020000040800F2
:1040000000500020A1870008D5840008DB84000848
:1040100000000000000000000000000000000000A0
:10402000000000000000000000000000E184000823
:104030000000000000000000EB840008F584000888
:10404000F1870008F187000805850008F18700085E
:10405000F1870008F1870008F9850008F18700085A
:1040600000000000F1870008F1870008F1870008D0
:10407000F187000825850008F1870008F18700080E
:10408000F1870008F1870008F187000800000000B0
:10409000F1870008F1870008F1870008F187000820
:1040A000F1870008F1870008F1870008C98500083A
:1040B000E1850008F1870008000000000000000012
:1040C00010B5064C2378002B07D1054B002B02D0EE
:1040D000044800E000BF0123237010BDD801002078
:1040E0000000000028180108044B10B5002B03D075
:1040F0000349044800E000BF10BDC04600000000B6
:10410000DC010020281801080023C25C0133002ACA
:10411000FBD1581E7047000002B47146490849009F
:10412000095C49008E4402BC7047C04603B4714626
:10413000490840004900095E49008E4403BC7047AD
:10414000002243088B4274D303098B425FD3030AD6
:104150008B4244D3030B8B4228D3030C8B420DD3E9
:10416000FF22090212BA030C8B4202D31212090277
:1041700065D0030B8B4219D300E0090AC30B8B42B5
:1041800001D3CB03C01A5241830B8B4201D38B0363
:10419000C01A5241430B8B4201D34B03C01A524108
:1041A000030B8B4201D30B03C01A5241C30A8B424B
:1041B00001D3CB02C01A5241830A8B4201D38B0236
:1041C000C01A5241430A8B4201D34B02C01A5241DA
:1041D000030A8B4201D30B02C01A5241CDD2C3094C
:1041E0008B4201D3CB01C01A524183098B4201D3C8
:1041F0008B01C01A524143098B4201D34B01C01AB3
:10420000524103098B4201D30B01C01A5241C3082A
:104210008B4201D3CB00C01A524183088B4201D399
:104220008B00C01A524143088B4201D34B00C01A85
:104230005241411A00D20146524110467047FFE7F1
:1042400001B5002000F0F0F802BDC0460029F7D00B
:1042500076E7704703460B437FD4002243088B4226
:1042600074D303098B425FD3030A8B4244D3030BFD
:104270008B4228D3030C8B420DD3FF22090212BAC2
:10428000030C8B4202D31212090265D0030B8B423E
:1042900019D300E0090AC30B8B4201D3CB03C01A28
:1042A0005241830B8B4201D38B03C01A5241430B03
:1042B0008B4201D34B03C01A5241030B8B4201D3F3
:1042C0000B03C01A5241C30A8B4201D3CB02C01A5E
:1042D0005241830A8B4201D38B02C01A5241430AD6
:1042E0008B4201D34B02C01A5241030A8B4201D3C5
:1042F0000B02C01A5241CDD2C3098B4201D3CB016C
:10430000C01A524183098B4201D38B01C01A52411A
:1043100043098B4201D34B01C01A524103098B421E
:1043200001D30B01C01A5241C3088B4201D3CB0009
:10433000C01A524183088B4201D38B00C01A5241EC
:1043400043088B4201D34B00C01A5241411A00D29C
:1043500001465241104670475DE0CA0F00D0494205
:10436000031000D34042534000229C4603098B4275
:104370002DD3030A8B4212D3FC22890112BA030AFD
:104380008B420CD3890192118B4208D3890192117F
:104390008B4204D389013AD0921100E08909C30904
:1043A0008B4201D3CB01C01A524183098B4201D306
:1043B0008B01C01A524143098B4201D34B01C01AF1
:1043C000524103098B4201D30B01C01A5241C30869
:1043D0008B4201D3CB00C01A524183088B4201D3D8
:1043E0008B00C01A5241D9D243088B4201D34B00F3
:1043F000C01A5241411A00D20146634652415B1035
:10440000104601D34042002B00D549427047634615
:104410005B1000D3404201B5002000F005F802BD5A
:104420000029F8D016E770477047C0468446100050
:1044300062468C461900634600E0C0461FB501F095
:10444000B3F8002801D40021C8421FBD10B501F007
:1044500003F84042013010BD10B501F0A5F8002866
:1044600001DB002010BD012010BDC04610B501F0D9
:104470009BF8002801DD002010BD012010BDC046C2
:1044800010B501F02BF8002801DC002010BD012040
:1044900010BDC04610B501F021F8002801DA002057
:1044A00010BD012010BDC046002B11D1002A0FD134
:1044B000002900D1002802D00021C943080007B418
:1044C000024802A14018029003BDC0465DFFFFFFF5
:1044D00003B4684601B5029800F0A4F8019B9E461B
:1044E00002B00CBC7047C046F0B5CE469946030CEE
:1044F0009C46130447461B0C1D000E006146040435
:10450000240C80B50700100C4B43654341436043C6
:104510002C0CC01820188C46834203D980235B02E0
:104520009846C444494679435643030C2D042D0C48
:104530008919634400044019C918C0BCB946B04683
:10454000F0BDC04670B500220C4B04000D00FFF713
:10455000A1FF002804D12000290001F0EBFE70BD6E
:10456000064B00222000290001F044FB01F0E2FE8E
:1045700080231B069C466044F1E7C0460000E041F2
:1045800070B505000C000022002328002100FFF771
:1045900063FF002808D12800210000F00FF8020076
:1045A0000B001000190070BD80231B06E1182800C5
:1045B00000F004F8002342428B41F2E770B500227C
:1045C0000B4B0D00040001F053F8FFF7BBFF060092
:1045D00001F016FF0022074B01F04AF802000B0021
:1045E0002000290001F006FBFFF7ACFF310070BD91
:1045F0000000F03D0000F04170B50600080001F039
:10460000CFFE0022064B01F033F80D00040030000D
:1046100001F0F6FE2B00220000F0D0F870BDC0467D
:104620000000F041F0B557464E464546DE46E0B53F
:1046300004000D009246994683B08B4230D82DD0AD
:104640004946504601F0A6FF29000600200001F06F
:10465000A1FF331A9846203B34D49B4653465A4612
:10466000934042461F00534693401E00AF423BD842
:10467000AF4200D179E05B46A41BBD41002B00DABC
:1046800076E0002200230092019301235A469340D2
:104690000193012342469340009329E08242CFD9FF
:1046A00000220023009201930C9B002B01D01C6080
:1046B0005D600098019903B0F0BCBB46B246A946C4
:1046C000A046F0BD42469B4620239B1A5246DA4044
:1046D000414613004A468A40170042461F4353464C
:1046E00093401E00AF42C3D90022002300920193E1
:1046F0004346002BD8D0FB0772081A4346467B0876
:104700000EE0AB4201D1A2420CD8A41A9D41012077
:1047100024196D410021013E24184D41002E06D080
:10472000AB42EED9013E24196D41002EF8D100981C
:1047300001995B4600196941002B24DB2B005A4686
:104740004446D3402A00E2401C005B461500002B83
:104750002ADB26009E40330026004746BE4032003A
:10476000801A9941009001919EE7A342BCD882E74C
:104770004246202300219B1A00220091019201222F
:10478000DA40019285E7424620239B1A2A004646DA
:104790009A402300F340444613432A00E2401C00A1
:1047A0005B461500002BD4DA42462F00202326005A
:1047B00097409B1ADE403B003343CDE7F0B54F46B0
:1047C0004646D6460400C0B51F000B0310004E003D
:1047D0005B0ACD0F610F7A001943E3003C03FF0F22
:1047E000BC46640A470F2743760D520DC000B946F8
:1047F0008046B71A654500D19BE0002F00DC84E0BD
:10480000002A00D1BEE0C84A964200D124E18022AD
:104810004C4612041443A146382F00DD67E11F2FD8
:1048200000DDD6E120224C46D21B9440A2464446ED
:10483000FC4020005446044340469040421E9041B4
:104840004A46FA400443891A1C1BA3429241524231
:104850008B1A9A4653461B0200D4D4E053465A02A0
:10486000530A9A465346002B00D104E1504601F00A
:1048700073FE0300083B20222000D21A5146D0408C
:10488000994002009C400A43B34200DA02E19B1BBC
:10489000591C1F2900DDA7E02023100026005B1A09
:1048A0009C409840CE40CA40631E9C413043924693
:1048B00000260443630709D00F232340042B05D0AF
:1048C000231DA342A4416442A2441C0053461B0280
:1048D00000D49BE0944B01369E4200D1B8E0534691
:1048E0009249E4080B4019005B07234372054C0210
:1048F000240B520D1205ED0722432A431800110024
:10490000E0BCBA46B146A846F0BD002F48D0971B80
:10491000002E00D00EE10C001C4300D1B7E17C1E3C
:10492000012F00D126E2804DAF4200D1D5E1270012
:1049300007E1002F00DCB2E0002A47D07A4A964215
:1049400000D189E080224C4612041443A146382F3E
:104950006BDC1F2F00DC6EE13A004846203AD04065
:104960008446202F07D040224846D21B90400200A8
:104970004046104380464046421E90416246040035
:10498000144357E04A46024300D103E17A1E012F47
:1049900000D193E1644CA74200D18AE117003BE7C4
:1049A000634C721C224200D0E0E00A001A43002E41
:1049B00000D074E1002A00D1D0E14A46024300D081
:1049C000E3E14A07DB081343C90829E04A460243EA
:1049D00000D17DE17A1E012F00D1E0E0524CA742C8
:1049E00000D166E11700B2E710001F3BD840202934
:1049F00003D040235B1A9A401443631E9C4100235A
:104A000000269A460443630700D055E75246E30860
:104A10005207134352463700D108434A97421FD0EA
:104A200009037A050C0B520D64E742464C461443C9
:104A3000621E9441E4189C429241524292468A443A
:104A400053461B02DFD5384B01369E4200D0B3E0FF
:104A50003200002400234DE74A07DB081343C9084E
:104A60001A000A4300D100E2802424030C432403EB
:104A70002D4A240B3EE7200001F06EFD03001833A1
:104A80001F2B00DCF7E62200083882400024B342E6
:104A900000DBFCE6F61A254B1A4092460AE7002F87
:104AA0002BD0971B002E00D1B8E01F4CA24200D1A2
:104AB0001CE1802424042143382F00DD1EE11F2F38
:104AC00000DD9EE120260C00F61B1800B340B44028
:104AD000F8405E1EB341F94004431C4389444444FA
:104AE00044459B415B424B449A461600A8E7424628
:104AF0004C461443621E9441A6E60D4C721C2242A1
:104B000000D0A8E00A001A43002E00D00AE1002AD3
:104B100000D15EE14A46024300D061E14A07DB086A
:104B20001343C9087CE7C046FF070000FFFF7FFF73
:104B3000FE070000CF4CA24200D1CEE08024240426
:104B40002143382F5BDC1F2F00DDDCE020250C002B
:104B5000ED1B1E00AB40AC40FE405D1EAB4134433C
:104B6000F9401C434B465B1A99464CE04A461C1AD6
:104B7000881AA34292415242924602005046121AAB
:104B80009246120278D45346234300D06AE60021AD
:104B9000002545E74A07DB081343C9083DE71C1811
:104BA0009C429B4149448A465B429A4453460126B3
:104BB0001B0200D427E702265246AF4B01211A40C0
:104BC0001300214062080A43DC075B089A4614433D
:104BD00070E63A004C46203AD440A446202F07D035
:104BE00040224846D21B9040020040461043804677
:104BF0004046421E904162460400144324E6194395
:104C00000C00631E9C4143461C1BA0459B4149462A
:104C10005B42CB1A9A46654616001BE60C001C4305
:104C200000D1C7E07C1E012F00D1F9E0914EB742C0
:104C30005CD0270040E720224C464046D21B9440DF
:104C4000F840044340469040421E90414A46FA4094
:104C500004438918EEE6874CA24200D1F9E6181801
:104C600098429B4149445B42CB18DC0740085B08F3
:104C70009A4616000443C6E64246D41AA04580412F
:104C80004B464042591A0B1A9A466546EAE54B468E
:104C90004A46C0085B0765460343D108BDE6002AC3
:104CA00000D08EE04B46034317D180210025090335
:104CB000DAE64A07DB081343C908D1E61C1A4A465C
:104CC000A3429B41891A5B42CB1A9A460126C1E551
:104CD0004A07DB081343C9089FE64346D8084B46FA
:104CE0004A465B0765460343D108B9E64346D80800
:104CF0004B464A465B070343D108B1E619430C0013
:104D0000631E9C41EBE63C000D00203CE540202F5B
:104D100003D04024E41BA1400B431C00631E9C41B4
:104D20002C4370E7002AE1D04A460243C1D04A072B
:104D3000DB0813438022C9081203114208D04846F9
:104D4000C408144204D143462100DB084207134340
:104D50005A0FDB005207DB08134381E64B4603433F
:104D600000D114E74B464A46C0085B07654603433B
:104D7000D10855E6C41AA04580414B464042591A15
:104D80000B1A9A466546012664E51C1A4A46A34258
:104D900080418A1A4042121A9246120249D542466E
:104DA000D41AA04580414B464042591A0B1A9A46E4
:104DB00065467FE54B464A46C0085B070343D1087A
:104DC0002BE64A46DB08024338D14A071343C90899
:104DD00046E64B464A46C0085B070343D1081FE638
:104DE0001C189C429B4149448A465B429A44534664
:104DF0001B0200D407E652461F4B01261A4092467A
:104E000001E63C000E00203CE640202F03D0402469
:104E1000E41BA1400B431C00631E9C4134435EE62F
:104E200043448342804149448A4640421C008244B4
:104E3000BCE65346234300D1A9E6E4E54A07134301
:104E40008022C9081203114209D04846C4081442FE
:104E500005D1434665462100DB08420713435A0F3C
:104E6000DB00DB0852071343FAE50023014A1C006C
:104E700040E5C046FF070000FFFF7FFFF0B5574643
:104E80004E464546DE46E0B50C031F004B0081460A
:104E90009246050085B0240B5B0DCE0F002B00D190
:104EA00052E1D24A934200D16EE1420FE400144332
:104EB0008022120422439046CD4AC50093469B446B
:104EC0000023994600933C037B005046240B5B0D66
:104ED000FF0F002B00D11AE1C44A934200D15EE1DA
:104EE000420FE4002243802424041443C04AC1003A
:104EF00094465A466344D31A9B46002033007B40B5
:104F00009A464B460F2B27D8BA4A9B00D3589F4648
:104F1000B246009B022B16D0032B00D187E2012B57
:104F200000D0D5E00023002200251B051343524684
:104F3000D20713432800190005B0F0BCBB46B246A7
:104F4000A946A046F0BD00220025A84BEDE7BA46D1
:104F5000A0460D000090DCE7444500D2C4E100D13A
:104F6000BFE101235B429C462E0040460025E344FE
:104F700023020C0E1C431B0C994623040A021F0C2F
:104F8000494600920197FFF761F902007A430B044A
:104F9000310C804619438A4207D901235B429C4663
:104FA0000919E0448C4200D801E2881A4946FFF70B
:104FB0004DF9019A360442430904360C03000E43AE
:104FC000B24204D93619013BB44200D8E9E1B01A23
:104FD0004246009E12041A43330C1F00110C9046E7
:104FE000029313043204160C32001B0C5A4303962E
:104FF0007B434E437943170CBC469B1963449E4246
:1050000003D980267602B44661441E0C711816043A
:105010001B04360C9E19884202D312D1B54210D21D
:1050200043465A1E009B9C4665441F009D429B417F
:105030005B421B19C018844200D29EE100D199E165
:105040009046AE1BB542AD41401A6D42401B8442B2
:1050500000D1D2E14946FFF7F9F8019A0B04424327
:10506000310C050019438A4200D96CE1881A49467F
:10507000FFF7ECF8019A360442430904360C0300AA
:105080000E43B24200D953E10398B61A02002D0430
:105090001D43029F2B041B0C5A437B439C46290C47
:1050A0004843130C844463447943984203D98020D5
:1050B000400284466144180C12041B04120C401870
:1050C0009B18864200D200E100D1FBE001231D4382
:1050D000494B5B44002B00DCAAE06A0700D03DE1AD
:1050E000E9084246D20106D54246444B1A40802385
:1050F0009046DB005B44424A934200DD23E7424690
:105100005B05550752020D43120B5B0D0DE751462F
:10511000214300D17CE0002C00D1FBE0200001F015
:105120001BFA02000B3A1D239B1A52460100DA407B
:10513000534608398B408C4019001443314B584476
:105140009B4683440020D9E603002343984644D07D
:10515000002C00D1CFE0200001F0FEF90100020098
:105160000B391D235B1A49461000D940083884408A
:105170000B004D46234398468540234B9B1A9B4684
:105180000023994600939EE60200224390461DD1DB
:1051900008229B46022300259146009393E6514640
:1051A000214309D102234A461A43184B91469C4693
:1051B00000240220E344A1E603234A461A43134B8A
:1051C00091469C4651460320E34497E60C229B46B9
:1051D0000323A0469146009375E6042399460023D5
:1051E0009B460133002500936DE6C046FF07000093
:1051F00001FCFFFF98180108FF030000FFFFFFFEFE
:10520000FE070000F30300000DFCFFFF01F8FFFFA5
:105210004A4601231A439146002401206EE60023EA
:1052200080229A460025884B12037EE601256D42B6
:105230000122D21A382A00DD74E61F2A00DCBDE004
:105240001F214942CB1A4146D9400B00202A04D0E5
:1052500041467E4A5A4491400D4329004A1E9141DD
:10526000194307231D0000220D400B4200D1D0E05E
:105270000F2200230A40042A00D1C7E00A1D8A42F7
:10528000894149425B1811001A0200D4BEE0012393
:105290000022002549E6802243461203134208D02B
:1052A000144206D122431203BA460D00664B120B7C
:1052B0003BE68022434612031A431203B246624B76
:1052C000120B32E6002B00D102E7A6196A1EA64295
:1052D00000D289E0864200D29FE000D1AFE0150005
:1052E000F4E6A94200D93CE64346DE0758086B08BD
:1052F0001E43ED073CE601F02FF9010002001531D5
:1053000020321C2900DC2CE74B460838834000255E
:10531000984632E701F020F903001A0015322030D8
:105320001C2A00DCFFE65446083B00219C4005E7B0
:105330003619013BB44200D9A6E6B24200D8A3E632
:10534000831E3619A0E60919013D8C4200D98DE66D
:105350008A4200D88AE6851E091987E60F222A406C
:10536000042A00D1BCE6291DA942AD416D42C908FD
:10537000A844B6E6AF4200D962E6814204D800D024
:105380005EE6AE4200D85BE602235B429C46009B91
:10539000E0449C4665449D429B415B421B19C018FA
:1053A0004FE6B24200D812E6831E36190FE68A4253
:1053B00000D8FAE5831E98460919F6E5244B280023
:1053C0005B4441469D409940D0406B1E9D41434601
:1053D00001432943D3404A0700D155E70F220A4031
:1053E000042A00D04AE74FE71500864200D06DE658
:1053F000009A9A4200D069E66AE6164B5B44002B9D
:1054000000DC13E701250021A8446AE65D075B0282
:105410001A0BC90800230D4387E50099023D4A0095
:105420008A42BF417F423F19F6190092DDE7802290
:10543000434612031A431203034B120B75E50099FE
:105440009942EAD31500D3E7FF0700003E040000AD
:105450001E040000FF030000F0B54E464546DE4640
:1054600057469046E0B517001A03120B0500844614
:1054700019480E034C0091465A00DB0F9B46360B31
:10548000640DC90F520D844219D0824210D0012000
:1054900094420ED14E450CD10120C44509D1594545
:1054A00017D0002C05D130002843431E984100E05E
:1054B0000120F0BCBB46B246A946A046F0BD330071
:1054C00001202B43F5D1A242F3D14B463B43F0D10F
:1054D000E2E70020EDE7C046FF070000F0B54746D1
:1054E000CE460400180016001B031B0B2D4D4A006E
:1054F000994680B543000F03A446B0463F0B520DBA
:10550000C90F5B0DC00FAA4221D0AB4213D0002AB5
:1055100022D13C43002B02D14D462E4322D0002CF9
:1055200010D0814222D00220013908400138C0BC8D
:10553000B946B046F0BD4D462E4329D1002AF0D1E0
:105540003C43EED10028F2D101204042EFE73D007C
:1055500025431DD19342EED0002BE2D14C46264389
:10556000DFD1E0E70020002CE1D0DCE79A420ADC42
:10557000E8DB4F45D7D80ED000204F45D7D20029C1
:10558000E2D00800D3E74342584140000138CEE75B
:1055900002204042CBE7C445C5D80020C445C6D24E
:1055A000EDE7C046FF070000F0B54746CE460400D1
:1055B000180016001B031B0B2C4D4A00994680B5A2
:1055C00043000F03A446B0463F0B520DC90F5B0DBD
:1055D000C00FAA420DD0AB4210D0002A27D13C43C5
:1055E000002B11D14D462E430ED10020002C15D09A
:1055F0000EE03D00254310D1934218D14D462E4375
:105600000BD1002A02D13C43002C0BD0814214D094
:10561000022001390840013800E00220C0BCB94630
:10562000B046F0BD0028F9D101204042F6E7002B3A
:10563000ECD14C462643E9D1EAE79A4204DD4342E5
:10564000584140000138E9E79A42EBDB4F45DFD88B
:1056500006D000204F45E1D20029E5D00800DDE763
:10566000C445D5D80020C445D8D2F5E7FF070000CF
:10567000F0B54546DE4657464E46E0B51F000B03E3
:105680001B0B9B464D00CB0F04009146984687B0FC
:105690006D0D00D1CDE1CE4B9D4200D1E9E15A46DE
:1056A000430FD2001343802212041A43C3009A46C8
:1056B000C84B93469C4600230026654400933C0358
:1056C0007B004846240B5B0DFF0F002B00D189E1C6
:1056D000BF4A934219D0420FE4002243802424049D
:1056E0001443BC4A00219446424663445B1901932B
:1056F000019B7A400133C000D2B202930A2E1CDD16
:105700003A000B2E5ED0474656E04946B04B214347
:10571000EB18019300292AD18020022200012B00DE
:1057200084461643424663447A40D2B202930A2E1C
:1057300000DD31E2002000240221022E26DC013EA1
:10574000012E52D802294CD0012900D018E10023A3
:10575000002400251B052343D2071343280019000A
:1057600007B0F0BCBB46B246A946A046F0BD8021BA
:10577000032209012B008C461643424663447A40BB
:10578000D2B202930A2E00DD28E203210125B540A2
:10579000AC46A6266346F600354033420BD1902630
:1057A000B600334218D1B93EFF3E1E421DD0A3467B
:1057B0008246009100E0170000993A00022910D0BB
:1057C0005C4650460329BFD180231B031C4324039E
:1057D00005007F4B240BBDE7802400227C4B240373
:1057E000B8E7002400257A4BB4E753461E04360C74
:1057F0001F0C3300010C0004000C434398460300C7
:105800007B43994633004B439C4643460D001B0C9B
:105810009A467D43CC44D4440095E14504D9802385
:105820005B0299464D44009563461B0C1D00634680
:105830001B049C4643461B041B0C9846634643448A
:105840000393230C984633002404240C63439C46A2
:1058500023007B43994643465E435F434E44634681
:10586000B2461E0C5644B14503D980235B029946CB
:105870004F44330C99463B004B4405936346AC467A
:105880001F043F0C3604F619B444634604935B4688
:105890001B0C9C465B461F043F0C3B004343994650
:1058A000634643439A464B4660461B0C9B4648431F
:1058B0007943514459448A4503D980235B029A466F
:1058C00050440B0C9A464B461B041B0C99463B005C
:1058D0006343090445464944994663465C436B4328
:1058E0009C464B461B0C98466F433F194744504417
:1058F000BC4203D980235B029846C444049B009DAC
:1059000098464544B542B641734298464B461E04FC
:10591000059B3C049946360CA4194C44A146834689
:105920006E18C1448E428941CB445D4649426D1890
:105930009C42A441C1459B41834580418D428941A0
:105940005B4264421C434042039B49420143700254
:105950003F0C1843E419471EB84164186444F60D1F
:1059600061023043EC0D6E020C433043C90100D498
:10597000F1E00121430801400B43E00718436408AC
:105980001549029B8C466344002B00DC97E04107DD
:1059900009D00F210140042905D0011D8142804119
:1059A000404224180800E10106D58021C9008C4638
:1059B0000A4B1C40029B634409498B4200DD10E7FF
:1059C0006107C50864025B050D43240B5B0DC1E64E
:1059D000FF07000001FCFFFFFF030000FFFFFFFEC9
:1059E000FE0700004B46234359D0002C00D1A3E012
:1059F000200000F0B1FD010003000B391D22521AF6
:105A000049461800D1404A46083882408440100078
:105A10000C43744AEB1A9446424663440193019B3B
:105A20007A4001330021D2B202930A2E00DD67E6EC
:105A300083E65B4603439A462AD05B46002B6DD033
:105A4000584600F089FD010003000B391D22521A4F
:105A5000210018005D46D140083885400A00844086
:105A60002A439346A2465F4D0026ED1A0023009379
:105A700025E65B4603439A4605D100239B46023345
:105A8000082600931BE6032382460C26009316E6A5
:105A900000239B4601330426002500930FE642466F
:105AA000013301951E43019B7A40013300240020FD
:105AB0000121D2B202930A2E00DD21E63DE601214A
:105AC000C91A382900DD42E61F2947DD1F262500B7
:105AD0007642F31ADD402B00202905D04249029D71
:105AE0008C466544AC402043411E8841184307233F
:105AF0001D000024054003424AD00F230024034028
:105B0000042B42D0031D83428041404224181800D8
:105B100023023AD50123002400251BE600F01CFDDA
:105B200001000300153120331C298FDD08380022C5
:105B300084409246A34696E700F00EFD0100030064
:105B4000153120331C2900DC58E702004C46083A86
:105B5000002094405DE7019B029311E7234B260050
:105B60009C460300029DCB406544AE401E430300AB
:105B7000AB40581E834130001843CC404307C7D088
:105B80000F230340042BBDD1C2E765076402240B39
:105B9000C00800230543DDE5002502230F2E0CD1AC
:105BA00080245B46240323420ED021420CD10C43B7
:105BB00024033A000E4B240BCCE50B2E00D0A2E5BB
:105BC0008B46AA460093F7E580245B4624031C43DA
:105BD000240342465546064B240BBBE54D462100A7
:105BE0000323DBE70DFCFFFF3E0400001E04000062
:105BF000FF070000F0B557464E464546DE46E0B585
:105C00000D000400190010002B035B0A620F1A43F9
:105C1000E3000C03640A470F2743D04C6E00914603
:105C200083B04A00C0009846A246760DED0F520D93
:105C3000C90F0190A24200D1B9E0012461408B4616
:105C40008D4200D18DE0B41AA446002C00DCB7E0F0
:105C5000002A00D1CBE0C14A964200D186E18022E1
:105C6000120417436246382A00DDA4E11F2A00DD32
:105C70001DE2614620223C00521A010090409440EF
:105C8000421E90416246A0466446D7404A46E140E3
:105C90004446D21B91460C4304431C1BA342924131
:105CA0004B4652429B1A9A4653461B0200D42BE1A4
:105CB00053465A02530A9A465346002B00D166E1D6
:105CC000504600F049FC0300083B20222000D21A75
:105CD0005146D040994002009C400A439E4200DD5C
:105CE00064E19B1B591C1F2900DDFEE020231000EE
:105CF00026005B1A9C409840CE40CA40631E9C41DF
:105D00003043924600260443630709D00F23234003
:105D1000042B05D0231DA342A4416442A2441C00CD
:105D200053461B0200D4F2E08C4B01369E4200D158
:105D30000FE153468A49E4080B4019005B072343EF
:105D400072054C02240B520D12052243ED072A4323
:105D50001800110003B0F0BCBB46B246A946A046ED
:105D6000F0BDB41AA446002C59DD002A00D1B0E0E1
:105D7000564500D1FAE08022120417436246382AC1
:105D800000DDD4E01F2A00DCC0E13900203AD14018
:105D90006246202A06D064464022121B3C009440F2
:105DA00004430194019C621E94410C43C3E03C00F7
:105DB00004432BD08B468D422ED06A4CA446B4446B
:105DC0006446002C5FD0941BA446002E00D020E136
:105DD0004C461C4300D1C7E161464C1E012900D14D
:105DE00023E25E4DAC4500D1D8E1A4461AE13A0069
:105DF000024300D1E4E02200013A012C00D1C3E1CA
:105E000056498C4200D1B1E094462BE70124614011
:105E10008B468D4200D016E752498C46B444644606
:105E2000002C00D1D3E0911B8C46002E00D15EE106
:105E30004A498A4200D1BEE180214C4609040C4304
:105E4000A1466146382900DDBAE11F2900DD27E2BD
:105E50002024641A4946A1401E0088466146A3409A
:105E6000CE4041465C1EA341314319430C006346BA
:105E70004946D9407F18241884429B415B429A4688
:105E80001600BA445DE0384C721C224200D0DFE0BC
:105E90004A461A43002E00D05CE1002A00D1CFE12F
:105EA0003A00024300D17FE11C1A4A46A3428941CD
:105EB000D21B4942521A9246120200D40AE2C41A74
:105EC000A04280414B464042FF1A3B1A9A465D462B
:105ED0001AE73A00024373D02200013A012C00D1A4
:105EE000CBE0544542D0944648E710001F3BD840D1
:105EF000202903D040235B1A9A401443631E9C411F
:105F0000002300269A460443630700D0FEE652466B
:105F1000E308520713435246B446D2080F498C4552
:105F20002AD01203140B62465205520D0CE73C00B6
:105F30000443621E9441E4189C42924152424A44F6
:105F4000924653461B02DFD5044B01369E4200D0D9
:105F5000A0E0320000240023F6E6C046FF07000060
:105F6000FFFF7FFF01F8FFFFFE070000DB084A4646
:105F7000520713434A46D2081900114300D1B5E134
:105F80008024240314432403D54A240BDCE6200098
:105F900000F0E2FA030018331F2B00DC95E6220024
:105FA0000838824000249E4200DC9AE6F61ACD4B67
:105FB0001A409246A8E63C000443621E94416CE6F7
:105FC0004A46DB08520713434A46D208A6E7C64CA6
:105FD000721C224200D0ACE04A461A43002E00D088
:105FE00005E1002A00D156E13A00024300D1DBE08E
:105FF0001C189C429B414F44BA465B429A4453460C
:106000001B0200D480E75246B64B01261A40924646
:106010007AE7B34CA24200D1C0E080244D4624046C
:106020002543A9466446382C53DC61461F2C00DD0D
:10603000CDE020251E002D1B4C46AB40AC40CE4091
:106040005D1EAB41344323434C46CC403F1B45E0EF
:106050004A461C1AD11BA3429241524292460A0060
:106060005146521A9246120200D583E0534623430A
:1060700000D021E60022002553E71C189C429B41DA
:106080004F44BA465B429A44534601261B0200D451
:106090003AE702265246934B01211A401300214051
:1060A00062080A43DC075B089A4614432CE6390071
:1060B000203AD1406246202A06D064464022121B74
:1060C0003C00944004430194019C621E94410C43A3
:1060D000E3E5494619430B005C1EA341C41AA042E4
:1060E0009B415B42FB1A9A465D461600DCE5494639
:1060F000194300D1AEE0614664460139012C00D15C
:10610000E0E0774CA44556D08C469AE661462022C2
:106110003C00521A944001009040A0466446421E42
:1061200090416246E1404446D7400C430443B944A1
:1061300001E76B498A4200D10CE7181898429B414D
:106140004F445B42FB18DC0740085B089A46160088
:106150000443D9E6002A00D081E03B0003431DD16F
:106160008022002512030BE7C0087B075D4603432E
:10617000FA08D3E6C41AA04280414B464042FF1AB7
:106180003B1A9A465D4697E51C1A4A46A3429B4134
:10619000D71B5B42FB1A9A46012685E5C0087B07A0
:1061A0005D460343FA08E7E64A46DB085207134315
:1061B0004A46D208B5E6C0087B070343FA08DBE687
:1061C000494619430B00591E8B411C0053E64D46AE
:1061D000203CE540202905D04024641A4946A140CE
:1061E0000B43984643465C1EA3412B4376E7002AA7
:1061F000E1D03A00DB08024300D1B8E64A46520734
:10620000802413434A462403D208224207D0FE08C2
:10621000264204D15D463200C3087F073B43590F35
:10622000DB004907DB080B43A6E6C41AA042804105
:106230004B464042FF1A3B1A9A465D46012633E51B
:106240003B00034300D115E7C0087B075D460343CD
:10625000FA0866E6C0087B070343FA085EE63A00E0
:10626000DB08024300D182E64A46520780241343EA
:106270004A462403D208224207D0FE08264204D10F
:106280005D463200C3087F073B43590FDB00DB0844
:1062900049070B4370E6C0087B070343FA0840E652
:1062A0004C462039CC406146202906D06646402124
:1062B000891B4E468E40334398464346591E8B41B8
:1062C0001C43D8E51C18844280414F44BA464042E2
:1062D0008244D9E65346234300D1CBE614E6C046B8
:1062E000FF070000FFFF7FFFFE0700000023014AB9
:1062F0001C0029E5FF07000070B505000C481C03D1
:1063000016005B000A034900120B490D240B5B0DBC
:10631000814208D0064A0020934203D12000304336
:10632000431E984170BD01202A43FBD1F2E7C046CD
:10633000FF0700000A0030B5134C530009030500A5
:10634000090B00205B0DD20FA34204DD0F488342EE
:1063500002DD0F4BD01830BD8020400301430D48B3
:10636000C01A1F2808DD0C48C31AD9400B00584238
:10637000002AF0D11800EEE7084CC540A44663445B
:1063800099400B002B43F2E7FE0300001D040000C0
:10639000FFFFFF7F3304000013040000EDFBFFFF4D
:1063A00070B5002816D0C317C5185D40C40F28006B
:1063B00000F0D2F8114B1B1A0A2816DC02002E003E
:1063C000153296400B22121AD5405B052D032D0B7A
:1063D0005B0D03E000240023002500261B052B4352
:1063E000E40723433000190070BD0B3885405B057E
:1063F0002D0300262D0B5B0DF0E7C0461E040000A8
:1064000010B5041E10D000F0A7F80F4B1B1A0A2875
:1064100011DC0B222100121AD14015300A035B0552
:106420008440120B5B0D01E0002300221B05134387
:106430002000190010BD22000B3882405B051203BA
:106440000024120B5B0DF1E71E0400000200F0B502
:106450004B000D03400F5B0DCC0F6D0A3A4905430D
:10646000581CD70008420AD038495918FE2916DDB1
:10647000FF200022C0051043E4072043F0BD002B9D
:1064800006D13D4326D005229201520AD8B2F1E747
:106490002F43EDD08022D203FF202A43EAE70029D0
:1064A0001BDD9201501E8241ED007F0F2A433A43CB
:1064B000530747D00F231340042B00D0043280230E
:1064C000DB0413403ED0481CFE29D1D09201520A71
:1064D000C0B2CFE700200022CCE70A0017322FDB42
:1064E000802636042E431E256D1A1F2D11DD022233
:1064F0005242521A3100D140202D04D0144A944601
:1065000063449E4037433A00531E9A410A43002198
:10651000CEE7104A38009446634498403A00411E42
:1065200088419E40EA403043024300215307C1D1D5
:1065300080211300C90401200B400A42C6D1A3E701
:106540000023A0E70B009FE7FE07000080FCFFFF91
:10655000A2FCFFFF82FCFFFF1C2101231B049842C9
:1065600001D3000C10391B0A984201D3000A0839E4
:106570001B09984201D30009043902A2105C40189B
:106580007047C0460403020201010101000000003F
:106590000000000010B5002903D1FFF7DDFF203017
:1065A00002E00800FFF7D8FF10BDC04680B500AF7D
:1065B000034B1A685B6810001900BD4680BDC046D9
:1065C000F801002080B500AF044B1B78042B01D0EC
:1065D000002300E001231800BD4680BD000200201A
:1065E00090B587B000AF3900164B0022180004F0B8
:1065F000DBFA14243919134B0022180004F0C6FBEF
:1066000021007B18DB781A000F4B1A607B185A7830
:106610000D4B1A717B189A780B4B5A717B181A78AC
:10662000094B5A723B001A78074B9A713B005A7813
:10663000054BDA713B009A78034B1A72C046BD468F
:1066400007B090BD480A0020F409002090B585B03D
:1066500000AF786008001100FB1C021C1A70BB1C04
:106660000A1C1A707B6864211800FDF7EFFD0B000F
:10667000DAB20C243B19DA70FB1C1B780C211800D1
:10668000FDF7E4FD0B00DAB23B195A70BB1C1B7816
:106690001F211800FDF7DAFD0B00DAB23B199A70E2
:1066A0003B1901221A703919044B0022180004F01A
:1066B000D9FAC046BD4605B090BDC046480A002084
:1066C00090B589B000AF040008001100FB1D221C2A
:1066D0001A70BB1D021C1A707B1D0A1C1A70FB1D50
:1066E0001B7818211800FDF7B1FD0B00DAB20C245D
:1066F0003B191A70BB1D1B783C211800FDF7A6FD45
:106700000B00DAB23B195A707B1D1B783C21180034
:10671000FDF79CFD0B00DAB23B199A703919044B56
:106720000022180004F096F9C046BD4609B090BD9D
:10673000480A002080B586B000AFF860B9607A6082
:10674000FA687B68D218C0235B019A4201D9002302
:1067500013E0FB680B4A944663447B6107E07A6967
:10676000531C7B61BB68591CB96012781A707B6836
:106770005A1E7A60002BF2D101231800BD4606B0E4
:1067800080BDC04600000808B0B586B000AFF86014
:10679000B9607A60FA687B68D218C0235B019A42BC
:1067A00001D9002343E012257B1900221A707C19BD
:1067B00002F070FB030023707B191B78002B01D0C3
:1067C000002334E000237B612AE01323FB1800221E
:1067D0001A70FA687B69D318174A9918BA687B69E6
:1067E000D3181B7812257C191A00002002F08EFBAA
:1067F000030023707B191B78002B07D01322BB18D2
:106800001B78BA18591C11700F2BE2D91223FB18F0
:106810001B78002B01D0002309E07B6901337B61E9
:106820007A697B689A42D0D302F062FB0123180098
:10683000BD4606B0B0BDC0460000080880B500AF38
:10684000BFF34F8FC046044B044ADA60BFF34F8F4B
:10685000C046C046FDE7C04600ED00E00400FA0572
:1068600080B500AF00F004F8C046BD4680BD000012
:1068700090B583B000AF334B1B7820221340DBB2BE
:10688000002B56D0FB1D00221A701DE0FB1D19784D
:10689000FB1D1B782C488122920041188A18107821
:1068A000294A2A49D3185B18021C1A70FB1D1A7852
:1068B000254981239B008A18D31800221A70FB1DDA
:1068C0001A78FB1D01321A701F4B1B7AFA1D1278C1
:1068D0009A42DBD31C4B00221A721B4B00225A72C5
:1068E000184B1A7820218A431A70174B174A9B5C61
:1068F000FF2B20D1FB1D144A1549525C1A70FB1D59
:106900001B785A1CBB1D104910488A18121812789F
:106910001A70FC1D0F4B180000F0B2F80300237032
:10692000FA1DBB1D12781B789A4206D100F014F8AC
:1069300004E0C04602E0C04600E0C046BD4603B0E9
:1069400090BDC046140A0020FC050020FE02000095
:10695000FF020000FA08002080B582B000AF224A92
:10696000C1239B00D35C7B607B681B027B601E4B5A
:106970001E4A9B5C1A007B689B187B607B68F02B2F
:106980002AD07B68F02B2AD87B68812B21D07B68AA
:10699000812B24D87B68122B18D07B68122B1ED831
:1069A0007B68112B0FD07B68112B18D87B68012BCB
:1069B00003D07B68022B03D011E000F0B3F80FE0A6
:1069C00000F01AFA0CE000F01DFA09E000F000FBFC
:1069D00006E000F0A3FB03E000F0F4FC00E0C0469A
:1069E000C046BD4602B080BDFC0500200503000086
:1069F00080B582B000AF00F077F80300012B32D0F1
:106A00001B4B1A7810210A431A701A4A0C23FF33C1
:106A1000D35C0233DAB2174B5A70FB1D00221A7096
:106A200012E0FB1D1978FB1D1B78124885225200CD
:106A300041188A1811780F4AD3180A1C1A74FB1DC2
:106A40001A78FB1D01321A700A4B5B78FA1D127816
:106A50009A42E6D3074B5B789AB20749074B180076
:106A600004F0D4FD00E0C046BD4602B080BDC04683
:106A7000140A0020FC0500200C060020F40A002067
:106A800080B584B000AF78607B6801331A780D233D
:106A9000FB1801321A700E23FB1800221A700F2304
:106AA000FB1801221A7010E00F203B181B787A683F
:106AB000D31819780E22BB18BA1812788A181A70CF
:106AC0003B181A783B1801321A700F23FA180D235D
:106AD000FB1812781B789A42E6D30E23FB181B781A
:106AE0001800BD4604B080BD80B500AF642001F041
:106AF00059FA0BE0094B1B7810221340DBB2002B34
:106B000004D1074B00229A60002304E0044B9B68E9
:106B1000002BEFD101231800BD4680BD140A0020D0
:106B20007C0B002090B585B000AF0F203B180022F1
:106B30001A70A64A89235B000021D154A34A14236A
:106B4000FF330021D154A14A8A235B000021D15494
:106B50009E4A1623FF330021D1549C4B9C4A9B5CD8
:106B60001A000123134014D0984A1623FF33D35C34
:106B700001221343D9B2954A1623FF33D154934AC5
:106B80008B235B000121D1543B181A783B1801324A
:106B90001A708E4B8E4A9B5C1A00022313401BD046
:106BA0008A4A1623FF33D35C02221343D9B2874AA1
:106BB0001623FF33D1540F203B181B780C331A00D7
:106BC000824985235B008A18D31800221A703B186B
:106BD0001A783B1801321A707C4B7D4A9B5C1A0074
:106BE000042313404AD0794A1623FF33D35C04228E
:106BF0001343D9B2754A1623FF33D154754BBB608A
:106C0000BB681800FDF780FA03007B600F243B1976
:106C10001B780C331A007B68D8B26C4985235B0063
:106C20008A18D318021C1A703B191A783B190132C2
:106C30001A70FB1C00221A701AE0FB1C1B781A0049
:106C4000BB6899180F22BB181B78BA18581C107013
:106C50000C331A0008785D4985235B008A18D31825
:106C6000021C1A70FB1C1B780133DAB2FB1C1A7071
:106C7000FB1C1B781A007B689342DEDC534B564AA0
:106C80009B5C1A00012313400AD0504A89235B0001
:106C9000D35C01221343D9B24C4A89235B00D154FF
:106CA0000E243B1900221A70484B4C4A9B5C1A0078
:106CB0000123134016D0454A1423FF33D35C01222D
:106CC0001343D9B2414A1423FF33D154FB1CCC22C5
:106CD0001A70FB1C424801221900FFF755FD3B19B1
:106CE00001221A70394B3D4A9B5C1A000223134063
:106CF00017D0364A1423FF33D35C02221343D9B290
:106D0000324A1423FF33D154FB1C00221A70FB1C9F
:106D1000334801221900FFF737FD0E23FB1801222B
:106D20001A702A4A85235B00FF21D1540F23FB18D8
:106D30001B780B33D9B2254A0C23FF33D154234A95
:106D400086235B000021D154204B264A995C1F4AC0
:106D50000E23FF33D1541D4B234A995C1B4A8723D2
:106D60005B00D154194B214A995C184A1023FF3318
:106D7000D154164A88235B008021D154134A122330
:106D8000FF330121D154114A0C23FF33D35C5C1C27
:106D9000174B1800FFF774FE030019000B4A8523F8
:106DA0005B001219D3180A1C1A70FFF721FE0E237C
:106DB000FB181B78002B05D00E4B180001F000F9D2
:106DC00000F066FDC046BD4605B090BDFC05002044
:106DD0000903000040180108060300000703000033
:106DE000FF1700000203000001030000030300007E
:106DF000060700201027000080B500AFC046BD4642
:106E000080BD000080B500AF694B6A4A9B5C012BD6
:106E100002D0022B0FD0C9E0654B674A9B5C1B2B4D
:106E20000CD900F049FBFA235B00180001F0C8F808
:106E300000F050FB03E000F04DFB00E0C0465C4A70
:106E400085235B00FF21D154594A0C23FF331C21B9
:106E5000D154574A86235B000021D154544B574AE2
:106E6000995C534A0E23FF33D154514B544A995CD9
:106E70004F4A87235B00D1544D4B524A995C4C4A90
:106E80001023FF33D1544A4A88235B008021D15418
:106E9000474A1223FF331121D154454A89235B000D
:106EA0000221D154484B1978414A1423FF33D1545D
:106EB000454B59783E4A8A235B00D154424B99781E
:106EC0003B4A1623FF33D1543F4BD978384A8B23A2
:106ED0005B00D1543C4B1979354A1823FF33D15408
:106EE000394B5979324A8C235B00D154364B99790E
:106EF0002F4A1A23FF33D154334BD9792C4A8D238F
:106F00005B00D154304B197A294A1C23FF33D154EA
:106F10002D4B597A264A8E235B00D1542A4B997AFD
:106F2000234A1E23FF33D154274BD97A204A8F237B
:106F30005B00D154244B197B1D4A2023FF33D154CD
:106F4000214B597B1A4A90235B00D1541E4B997BED
:106F5000174A2223FF33D1541B4BD97B144A912368
:106F60005B00D154184B197C114A2423FF33D154B0
:106F7000154B597C0E4A92235B00D154124B997CDD
:106F80000B4A2623FF33D1540F4BD97C084A932355
:106F90005B00D1540D4B1800FFF772FD0300190080
:106FA000034A2823FF33D154FFF722FDBD4680BD9D
:106FB000FC05002006030000FF02000002030000A1
:106FC0000103000003030000000A00200607002060
:106FD00080B500AF464B474A9B5C012B02D0022B89
:106FE00021D082E0424B444A985C414B434A995C31
:106FF0003F4AC3239B00D35C1A00FFF761FB3C4B65
:107000003F4A9B5C18003A4AC2239B00D15C384B34
:107010003C4A9B5C1A00FFF719FB642000F0D0FF8C
:10702000FFF7DEFA02E0FFF7DBFAC046304A8523BD
:107030005B00FF21D1542E4A0C23FF330D21D15484
:107040002B4A86235B000021D154294B2E4A995CA0
:10705000274A0E23FF33D154254B2C4A995C244AEE
:1070600087235B00D154224B294A995C204A102384
:10707000FF33D1541E4A88235B008021D1541C4A1F
:107080001223FF331221D154224B1B68D9B2184A64
:1070900089235B00D1541F4B1979154A1423FF3300
:1070A000D1541C4B5979124A8A235B00D154194B95
:1070B00099790F4A1623FF33D154164BD9790C4ACC
:1070C0008B235B00D154134B197A094A1823FF33E1
:1070D000D154114B1800FFF7D3FC03001900044AE8
:1070E0008C235B00D154FFF783FCBD4680BDC046B6
:1070F000FC050020060300000A0300000B0300004B
:107100000703000009030000020300000103000060
:1071100003030000F409002006070020B0B584B086
:1071200000AF0F243B1909221A709D4A89235B0086
:107130000021D1549A4B9B4A9B5C1A0001231340B7
:107140002DD0974A89235B00D35C01221343D9B227
:10715000934A89235B00D15400F0CAF90300BB6055
:10716000BB68190A3B191B783A19581C1070180093
:10717000C9B28B4A85235B001218D3180A1C1A70F7
:107180003B191B783A19591C11701800BB68D9B209
:10719000834A85235B001218D3180A1C1A70804B8F
:1071A000804A9B5C1A001023134000D195E07C4B71
:1071B0007D4A9B5C0A2B00D88FE0794A89235B00CB
:1071C000D35C10221343D9B2754A89235B00D15492
:1071D000734B764A9B5C9AB2BB1D12021A80704AAE
:1071E000C2239B00D35C99B2BB1DBA1D12888A18BA
:1071F0001A800E257B196A4A6D49525C1A70BB1DB4
:107200001B881B0A99B20F243B191B783A19581C8A
:1072100010701800C9B2624A85235B001218D31897
:107220000A1C1A703B191B783A19591C1170180066
:10723000BB1D1B88D9B25A4A85235B001218D3188C
:107240000A1C1A707B1D3A1912781A703B191B78A8
:107250003A19591C11701900514A85235B005218C4
:10726000D31800221A703B191A787B191B78D3188F
:10727000BB60BB689A1CFF231B02134008D0BB688D
:10728000DBB27A191278D31ADAB27B19023A1A7081
:107290000F257B191A78474BD1187B1D1C780E23BC
:1072A000FB181A78BB1D1B88180000F04BF903006F
:1072B00019003B4A85235B001219D3180A1C1A7067
:1072C0007B1D1A78364985235B008A18D3181978F4
:1072D0007B197A1912788A181A70314B314A9B5CE3
:1072E0005BB2002B14DA3C1D00F098FA0300237007
:1072F0003B1D1B78002B0BD0294A89235B00D35CF4
:10730000802252421343D9B2254A89235B00D154CB
:10731000234A85235B00FF21D1540F203B181B78A3
:10732000013BD9B21E4A0C23FF33D1541C4A862399
:107330005B000021D1541A4B1F4A995C184A0E2356
:10734000FF33D154164B1D4A995C154A87235B00C5
:10735000D154134B1A4A995C114A1023FF33D1546C
:107360000F4A88235B008021D1540D4A1223FF333A
:107370008121D1543B181C780E4B1800FFF780FB7D
:1073800003001900064A85235B001219D3180A1C52
:107390001A70FFF72DFBC046BD4604B0B0BDC04615
:1073A000FC05002006030000FF02000007030000A8
:1073B000090300000607002002030000010300008B
:1073C0000303000080B582B000AF334B334A9B5CAF
:1073D000012B0ED1FB1D01221A70FB1D304801222A
:1073E0001900FFF7D1F92F4BDA7840210A43DA7000
:1073F0000EE0FB1D00221A70FB1D29480122190016
:10740000FFF7C2F9274BDA7840218A43DA70C04689
:10741000214A85235B00FF21D1541F4A0C23FF33EF
:107420000821D1541C4A86235B000021D1541A4BF9
:107430001D4A995C184A0E23FF33D154164B1B4A40
:10744000995C154A87235B00D154134B184A995C09
:10745000114A1023FF33D1540F4A88235B00802147
:10746000D1540D4A1223FF33F021D154FB1D19785A
:10747000094A1223FF33D1540E4B1800FFF700FBCB
:1074800003001900044A1423FF33D154FFF7B0FA64
:10749000C046BD4602B080BDFC05002006030000CA
:1074A000FE170000140A0020020300000103000080
:1074B000030300000607002080B500AF044B142230
:1074C00019000120FFF760F9C046BD4680BDC046E7
:1074D0000309002080B500AF044B142219000120DD
:1074E000FFF728F9C046BD4680BDC046000A00200F
:1074F00080B584B000AF104BFB60104BBB60F91D32
:10750000BB6801221800FFF715F9FB1D1B78012B42
:1075100001D10B4B0CE03900FB6802221800FFF789
:1075200009F93B680B211800FCF70AFE03001B0158
:107530001800BD4604B080BD9515000097150000E9
:10754000301F0000F0B595B000AFB96111001E23E7
:10755000FB18021C1A801D23FB180A1C1A70FFF767
:1075600031F803001A0001235340DBB2002B01D095
:10757000002348E11E23FB181B88A54A934201D92A
:10758000002340E12E2618203318DB19A14A1A8067
:107590002C210B18DB19A04A1A800B18DB191B8849
:1075A0001B221218D11901221800FFF7C3F8182066
:1075B0003318DB191B88182106000A18D11902227A
:1075C0001800FFF7B7F81B2230001318DB191B78DF
:1075D000002B11D11E23FB181E8818210B18DB1954
:1075E0001B880B211800FCF7ABFD03009BB21B01AD
:1075F0009E4201DB002306E1FEF7D8FF02000B00EC
:10760000BA63FB63372318201B18DB1900221A709A
:1076100008263318DB19180010231A00002106F081
:10762000CDFCFB6B1B003B6000237B603A78310094
:1076300018200B18DB191A70FB6B1B02BA6B120EA9
:107640003A613A691A433A61FB6B1B0E7B613A7CE3
:107650000B18DB195A70FB6B1B04BA6B120CBA6067
:10766000BA681A43BA60FB6B1B0CFB603A7A0B18C2
:10767000DB199A70FB6B1B06BA6B140A1C43FB6B7D
:107680001D0AE2B20B18DB19DA70BA6BFB6B131C24
:10769000DAB20B18DB191A711B2305001B18DB1952
:1076A0001B78002B25D018246319DB191B880B21AC
:1076B0001800FCF745FD03009BB2F533FF339AB287
:1076C00034235B19DB1912011A806319DB191B883B
:1076D0000B211800FCF734FD03009BB201339BB271
:1076E0001B0199B21E22BB18BA1812888A181A8078
:1076F0000FE0182318241B19DB191B880B21180015
:10770000FCF71EFD03009AB234231B19DB1912018A
:107710001A801E2318229B18DB19FA2252011A80A4
:1077200064E01E257A191E2318241B19DB19128800
:107730001B8819001000FCF789FD0B009BB21B0988
:107740009BB21A1C9200D2189218D3189AB21C211C
:107750000B19DB1919321A800B19DB191888082349
:107760001B19DB1905330B221900FEF7E3FF7B1908
:107770001B880F221340BB642BE037201824031909
:10778000DB191B78BA69D31808221219D119BA6CFF
:107790008A1812781A70010020000B18DB191A7869
:1077A0000B18DB1901321A70BB6C0133BB641E2449
:1077B0003B191A883B1901321A803A1934231B18D5
:1077C000DB1912881B889A4203D30B18DB191B782C
:1077D00019E0BB6C0F2B09DC372318229B18DA1930
:1077E0001D23FB1812781B789A42C6D33721182024
:1077F0000B18DA191D23FB1812781B789A4290D3C4
:107800000B18DB191B781800BD4615B0F0BDC0463B
:107810003A1F00009515000097150000B0B584B020
:1078200000AF0E217B18184A1A800C23FB18174A48
:107830001A8008203B1800221A80FB1D00221A70B3
:107840007B181B880B257C19391802221800FEF7BB
:107850009BFF030023707B191B78002B01D10023B1
:107860000DE00C23FB181B880B257C19F91D012248
:107870001800FEF789FF030023707B191B7818009E
:10788000BD4604B0B0BDC046951500009715000078
:1078900080B584B000AF1C4BDB7840221340DBB2D4
:1078A000002B03D0194B180006F06CFA184B180087
:1078B00000F086FB72B6C046164B180001F0AEFE13
:1078C000154B180003F0C4FD01F030F800F0B2FFD2
:1078D00000237B607B6883F31488C04680231B05EC
:1078E0001B68BB60BB6883F30888C04680231B0508
:1078F0001B68FB60FB6883F30988C046074B802246
:1079000012059A60FEF79AFF140A00205818010821
:1079100010270000180A0020F40A002000ED00E003
:1079200080B500AF00F066FF00F020F800F0F4F939
:1079300000F0D2F800F070F900F0A0F900F09CF827
:1079400000F006FB074BDB7840221340DBB2002B34
:1079500003D0054B180006F015FAFEF781FF00F082
:107960003FFBFAE7140A00206C18010890B59BB0A1
:1079700000AF34243B19180034231A00002106F00C
:107980001DFB2023FB18180014231A00002106F009
:1079900015FB3B00180020231A00002106F00EFB07
:1079A000324B1B68324A1A40304B802109010A438E
:1079B0001A6002F0BBF82F4B1B6D2D4A1A402D4B5D
:1079C000802109010A431A653B1914221A603B19E8
:1079D000802252009A6021007B1801229A617B1854
:1079E0000022DA617B18C02212021A627B18002280
:1079F0005A627B18180002F0A7F8031E01D000F0AD
:107A0000FBFB20217B180F221A607B1800225A6092
:107A10007B1800229A607B180022DA607B18002213
:107A20001A617B180021180002F00AFC031E01D025
:107A300000F0E2FB3B00A3221A603B0000229A60A8
:107A40003B000022DA603B00802252025A603B0079
:107A50000022DA613B00180002F016FE031E01D07E
:107A600000F0CAFBC046BD461BB090BD0070004090
:107A7000FFE7FFFF0010024080B500AF124B134A32
:107A80001A60114B00225A600F4B00229A600E4B75
:107A90000F4A5A610C4B00221A620B4B00225A62A9
:107AA000094B00229A62084B180001F02BFD031EBF
:107AB00001D000F0A1FB074A034B1100180001F0B0
:107AC000D9FDC046BD4680BD180A0020007C00409C
:107AD000FFFF00006210000080B590B000AF2C23C3
:107AE000FB18180014231A00002106F067FA282357
:107AF000FB1800221A603B00180028231A000021FE
:107B000006F05CFA414B424A1A60404B00225A6030
:107B10003E4B7F229A603D4BFF22DA603B4B0022B6
:107B20001A613A4B00225A61384B00229A61374B56
:107B30000022DA61354B180002F0F0FE031E01D07E
:107B400000F05AFB2C217B1800221A707B180022AF
:107B50005A707B1800229A707B180022DA607B181A
:107B600000221A617918294B0022180002F072FFD6
:107B7000031E01D000F040FB28217B1803221A705D
:107B80007B1801225A707B1801229A707B181922E7
:107B9000DA7079181D4B0022180003F063F8031EF9
:107BA00001D000F029FB3B0000221A703B000022AC
:107BB0005A703B0000229A703B0080225A603B00C2
:107BC0000022DA603B0000221A613B00114A5A6130
:107BD0003B00802212059A613B000022DA613B00E3
:107BE0002022012199543B00802252005A62390020
:107BF000064B0122180003F019F9031E01D000F012
:107C0000FBFAC046BD4610B080BDC046480A002001
:107C1000002800408080808080B500AF154B164A58
:107C20001A60144BE12252025A60124B00229A60F1
:107C3000104B0022DA600F4B00221A610D4B0C2210
:107C40005A610C4BC02292009A610A4B0022DA6101
:107C5000084B00221A62074B00225A62054B18009B
:107C600003F0A2FB031E01D000F0C6FAC046BD46D9
:107C700080BDC0466C0A00200038014090B583B03A
:107C800000AF214B214A1A601F4B962292015A6085
:107C90001D4B00229A601C4B0022DA601A4B002216
:107CA0001A61194B0C225A61174B00229A61164B2C
:107CB0000022DA61144B00221A62134B00225A622E
:107CC000114B180003F070FB031E01D000F094FA72
:107CD000FC1D0F490C4B0122180003F007FD0300A7
:107CE0002370FB1D1B78002B05D00A4B1A78082146
:107CF0008A431A7004E0074B1A7808210A431A7065
:107D0000C046BD4603B090BDF40A002000440040C8
:107D1000FC050020140A002090B589B000AF0C24A7
:107D20003B19180014231A00002106F047F93B4BB9
:107D3000DA6A3A4B02210A43DA62384BDB6A0222E2
:107D40001340BB60BB68354BDA6A344B01210A43F0
:107D5000DA62324BDB6A012213407B607B682F4B77
:107D6000DA6A2E4B04210A43DA622C4BDB6A0422C6
:107D700013403B603B68A023DB050022C0211800B4
:107D800001F07CFB3B1901221A603B1900225A606A
:107D90003B1900229A603B19214A1900100001F09A
:107DA0000DF93B1980221A603B1901225A603B19D8
:107DB00002229A603B190022DA603A19A023DB05FF
:107DC0001100180001F0FAF821007B188022D2007F
:107DD0001A600C003B1900225A603B1900229A607D
:107DE0003B19104A1900100001F0E8F821007B1837
:107DF00040221A607B1801225A607B1801229A6087
:107E00007B180022DA607A18A023DB051100180025
:107E100001F0D4F8C046BD4609B090BD0010024044
:107E2000000800500004005080B582B000AF7860B8
:107E3000044B1A68034B04210A431A60C046BD462E
:107E400002B080BD0070004080B582B000AF7860A5
:107E5000044BDB685A1C034BDA60C046BD4602B0D7
:107E600080BDC0467C0B0020B0B584B000AF786008
:107E70007B681B68214A93423BD1214B1B7820220F
:107E80001340DBB2002B34D11E4B5B7A18001D4B24
:107E900019781C4A81239B001218D3180A1C1A70E7
:107EA000184B5B7A0133DAB2164B5A72154B5B7A78
:107EB000F92B02D9134B00225A72124B0422DA60BA
:107EC0000F257C190F49104B0122180003F00EFCFE
:107ED000030023707B191B78002B05D0084B1A7800
:107EE00008218A431A7004E0054B1A7808210A43D6
:107EF0001A70C046BD4604B0B0BDC0460044004044
:107F0000140A0020FC050020F40A002080B582B08D
:107F100000AF78607B681B680A4A934204D10A4B21
:107F20001A7802218A431A707B681B68074A9342B9
:107F300004D1054B1A7810218A431A70C046BD46F9
:107F400002B080BD00380140140A00200044004007
:107F500080B582B000AFFB1D104801221900FEF76A
:107F6000E9FBFB1D1B78012B05D10D4BDA78402175
:107F70000A43DA7004E00A4BDA7840218A43DA7067
:107F8000074B1A7802218A431A70054B1A78102180
:107F90008A431A70C046BD4602B080BDFE1700007D
:107FA000140A002080B582B000AF7860034B7A6875
:107FB0009A60C046BD4602B080BDC0467C0B002022
:107FC00080B582B000AF786000E0C0467B685A1E82
:107FD0007A60002BF9D1C046C046BD4602B080BDD4
:107FE00080B500AF764BDB7840221340DBB2002B2C
:107FF00000D1DDE0734B5B68002B00D0DAE0704B02
:108000001B7810221340DBB2002B00D0D4E06D4B64
:10801000FA2292005A60FEF7E3FA6A4B32221A748F
:10802000684B30225A74684B1B6864211800FCF7B7
:108030000DF90B000A211800FCF782F80300DBB2EF
:108040003033DAB25F4B9A745F4B1B6864211800BF
:10805000FCF7FCF80B000A211800FCF7F7F80B00FE
:10806000DBB23033DAB2574BDA74564B2D221A7525
:10807000554B1B790A211800FCF762F80300DBB2AC
:108080003033DAB24F4B5A754F4B1B790A21180027
:10809000FCF7DCF80B00DBB23033DAB2494B9A75EF
:1080A000484B2D22DA75484B5B790A211800FCF702
:1080B00047F80300DBB23033DAB2424B1A76424B58
:1080C0005B790A211800FCF7C1F80B00DBB23033F2
:1080D000DAB23C4B5A763B4B20229A763A4B9B794C
:1080E0000A211800FCF72CF80300DBB23033DAB2B7
:1080F000344BDA76344B9B790A211800FCF7A6F84A
:108100000B00DBB23033DAB22E4B1A772D4B3A220A
:108110005A772D4BDB790A211800FCF711F8030080
:10812000DBB23033DAB2274B9A77274BDB790A215F
:108130001800FCF78BF80B00DBB23033DAB2214BBE
:10814000DA77204B20223A2199541F4B1B7A0A21BF
:108150001800FBF7F5FF0300DBB23033D9B2194B3F
:1081600021229954184B1B7A0A211800FCF76EF84B
:108170000B00DBB23033D9B2124B22229954114B8F
:1081800023220D2199540F4B24220A2199540D4B7F
:1081900015225A700A4B1A7810210A431A70094B9B
:1081A0005B789AB209490A4B180003F02FFA04E0F1
:1081B000C04602E0C04600E0C046BD4680BDC046A5
:1081C000140A0020FC050020F40900200C06002001
:1081D000F40A002080B582B000AF786001235B42D2
:1081E000391D0448012203F071F97B681800BD466F
:1081F00002B080BDF40A002080B500AF054B180026
:1082000005F0C0FD044B1800FFF7DAFEFFF740FB56
:10821000F4E7C046841801081027000080B500AFBD
:10822000074B5A6B064B01210A435A63044B9A6B66
:10823000034B802149050A439A63C046BD4680BD71
:108240000010024080B582B000AF78607B681B6888
:108250000A4A93420ED10A4B9A6B094B80210906B8
:108260000A439A63002200210D2000F03BFC0D2000
:1082700000F04DFCC046BD4602B080BD007C004011
:108280000010024080B582B000AF78607B681B6848
:10829000074A934208D1074B9A6B064B520052088B
:1082A0009A630D2000F043FCC046BD4602B080BD7D
:1082B000007C00400010024080B582B000AF7860C2
:1082C0007B681B680A4A93420ED10A4B1A6D094B10
:1082D0008021C9020A431A6500220021022000F011
:1082E00001FC022000F013FCC046BD4602B080BD78
:1082F000002800400010024090B58BB000AF7860BD
:1083000014243B19180014231A00002105F056FE0E
:108310007B681B68494A934254D1494B5A6B484B7E
:108320008021C9010A435A63454BDA6A444B022152
:108330000A43DA62424BDB6A022213403B613B692B
:108340003F4BDA6A3E4B01210A43DA623C4BDB6A5F
:1083500001221340FB60FB683B1918221A603B198D
:1083600002225A603B1900229A603B190322DA600C
:108370003B1905221A613B19324A1900100000F01E
:108380001DFE21007B18C022D2001A607B18022239
:108390005A607B1800229A607B180322DA607B18EF
:1083A00004221A617A18A023DB051100180000F0DE
:1083B00005FE002203211B2000F094FB1B2000F08F
:1083C000A6FB36E07B681B681F4A934231D11C4BE9
:1083D0009A6B1B4B802189020A439A63184BDA6A15
:1083E000174B01210A43DA62154BDB6A0122134065
:1083F000BB60BB6814217B180C221A607B18022218
:108400005A607B1800229A607B180322DA607B187E
:1084100004221A617A18A023DB051100180000F06D
:10842000CDFD002202211C2000F05CFB1C2000F08E
:108430006EFBC046BD460BB090BDC0460038014043
:1084400000100240000400500044004080B582B09B
:1084500000AF78607B681B68184A934216D1184BAE
:108460005A6B174B17490A405A63174B18211800CB
:1084700000F022FFC023DA00A023DB051100180062
:1084800000F01AFF1B2000F052FB13E07B681B6812
:108490000E4A93420ED10A4B9A6B094B0C490A4083
:1084A0009A63A023DB050C21180000F005FF1C20B7
:1084B00000F03DFBC046BD4602B080BD0038014023
:1084C00000100240FFBFFFFF0004005000440040C6
:1084D000FFFFFDFF80B500AFFEE780B500AFFEE710
:1084E00080B500AFC046BD4680BD80B500AFC04678
:1084F000BD4680BD80B500AF00F0FCF9C046BD466A
:1085000080BD000080B500AF054B180002F014FFDD
:10851000034B180002F0ECFDC046BD4680BDC046CE
:10852000480A002080B500AF224B9B68002B04D086
:10853000204B9B685A1E1F4B9A601F4B5B68002B99
:1085400004D01D4B5B685A1E1B4B5A601B4BDB68EB
:10855000002B11D0194BDB685A1E184BDA60174BF1
:10856000DB68002B08D1154B5A7A144B1A72144B46
:108570001A7804210A431A700F4BDB68002B11D0C4
:108580000D4BDB685A1E0C4BDA600B4BDB68002B83
:1085900008D1094B5A7A084B1A72094B1A782021D4
:1085A0000A431A70074B180001F0DAF8C046BD46BE
:1085B00080BDC0467C0B0020FC050020040200208A
:1085C000140A0020180A002080B500AF034B1800E1
:1085D00003F0EAF8C046BD4680BDC0466C0A0020E4
:1085E00080B500AF034B180003F0DEF8C046BD466F
:1085F00080BDC046F40A002080B500AF054B1A6864
:10860000044B04210A431A60082000F055FFC046BD
:10861000BD4680BD0070004080B500AF012318004A
:10862000BD4680BD80B582B000AF7860396005F08E
:108630001FFD030016221A6001235B421800BD468D
:1086400002B080BD80B582B000AF786001235A428D
:108650007B6811001800FFF7E5FFFEE780B586B0E4
:1086600000AFF860B9607A6000237B610AE000E047
:1086700000BF0100BB685A1CBA60CAB21A707B699D
:1086800001337B617A697B689A42F0DB7B68180072
:10869000BD4606B080BD80B586B000AFF860B96059
:1086A0007A6000237B6109E0BB685A1CBA601B78C2
:1086B0001800FFF78FFD7B6901337B617A697B6866
:1086C0009A42F1DB7B681800BD4606B080BD80B5DC
:1086D00082B000AF786001235B421800BD4602B053
:1086E00080BD80B582B000AF786039603B68802281
:1086F00092015A6000231800BD4602B080BD80B5CB
:1087000082B000AF786001231800BD4602B080BD82
:1087100080B584B000AFF860B9607A6000231800BB
:10872000BD4604B080BD000080B586B000AF786063
:10873000144A154BD31A7B617B693B61134B1B6851
:10874000002B02D1114B124A1A60104B1A687B6839
:10875000D3183A699A4207D205F08AFC03000C222A
:108760001A6001235B4209E0084B1B68FB60074B62
:108770001A687B68D218054B1A60FB681800BD4662
:1087800006B080BD0050002000040000980B0020BF
:10879000080D002080B500AFC046BD4680BD00007A
:1087A0000D488546FFF7F6FF0C480D490D4A00239A
:1087B00002E0D458C4500433C4188C42F9D30A4A96
:1087C0000A4C002301E013600432A242FBD305F0FF
:1087D00055FCFFF7A5F8FEE7005000200000002040
:1087E000D4010020801D0108D8010020040D0020C4
:1087F000FEE7000080B582B000AFFB1D00221A70BA
:108800000B4B1A680A4B40210A431A60002000F003
:108810003DF8031E03D0FB1D01221A7001E0FFF793
:10882000FDFCFB1D1B781800BD4602B080BDC04694
:108830000020024080B500AF104B012252429A62E4
:108840000E4B00229A620D4B012252425A620B4B90
:1088500000225A62094B012252421A62074B00223F
:108860001A62064B01225242DA61044B0022DA619D
:1088700000F006F800231800BD4680BD001002403D
:1088800080B500AFC046BD4680BD000090B583B046
:1088900000AF7860144B1C68144B1B781900FA2346
:1088A0009800FBF74DFC030019002000FBF748FC83
:1088B0000300180000F04BF9031E01D001230FE064
:1088C0007B68032B0BD8796801235B4200221800D8
:1088D00000F008F9064B7A681A60002300E00123D3
:1088E0001800BD4603B090BD000000200800002025
:1088F0000400002080B500AF054B1B781A00054B23
:108900001B68D218034B1A60C046BD4680BDC046E6
:10891000080000209C0B002080B500AF024B1B68B4
:108920001800BD4680BDC0469C0B002080B500AF3E
:10893000044B1A68034B02218A431A60C046BD46A5
:1089400080BDC04610E000E080B582B000AF0200FC
:10895000FB1D1A70FB1D1B787F2B09D8FB1D1B7894
:108960001A001F231A40044B012191400A001A608B
:10897000C046BD4602B080BD00E100E080B582B0D7
:1089800000AF0200FB1D1A70FB1D1B787F2B10D857
:10899000FB1D1B781A001F231340084901229A402F
:1089A000130080228B50BFF34F8FC046BFF36F8FF1
:1089B000C046C046BD4602B080BDC04600E100E0F2
:1089C00090B583B000AF02003960FB1D1A70FB1D2B
:1089D0001B787F2B28D82F4AFB1D1B785BB29B0886
:1089E000C0339B009B58FA1D1278110003220A40E5
:1089F000D200FF2191400A00D2431A4011003B6887
:108A00009B01FF221A40FB1D1B7818000323034023
:108A1000DB009A401F48FB1D1B785BB29B080A4392
:108A2000C0339B001A5031E01B4AFB1D1B78190014
:108A30000F230B40083B9B0806339B00D3180433DD
:108A40001B68FA1D1278110003220A40D200FF2190
:108A500091400A00D2431A4011003B689B01FF225B
:108A60001A40FB1D1B78180003230340DB009A40CB
:108A70000948FB1D1B781C000F232340083B9B0863
:108A80000A4306339B00C31804331A60C046BD4630
:108A900003B090BD00E100E000ED00E080B582B0E1
:108AA00000AF78607B685A1E80235B049A4201D332
:108AB000012310E00A4B7A68013A5A6001235B42B5
:108AC00003211800FFF77CFF054B00229A60044B3E
:108AD00007221A6000231800BD4602B080BDC046C0
:108AE00010E000E080B584B000AFB9607A600F217B
:108AF0007B18021C1A70BA687B181B785BB21100D5
:108B00001800FFF75DFFC046BD4604B080BD80B5CC
:108B100082B000AF0200FB1D1A70FB1D1B785BB218
:108B20001800FFF711FFC046BD4602B080BD80B5FA
:108B300082B000AF0200FB1D1A70FB1D1B785BB2F8
:108B40001800FFF71BFFC046BD4602B080BD80B5D0
:108B500082B000AF78607B681800FFF79FFF0300CA
:108B60001800BD4602B080BD80B584B000AF78600B
:108B70000F23FB1800221A707B6825229B5CDBB256
:108B8000022B08D07B680422DA637B682422002150
:108B90009954012324E07B681B681A687B681B6872
:108BA0000E218A431A607B681B681A687B681B6801
:108BB00001218A431A607B685B6C1C221A407B6827
:108BC0001B6C012191400A005A607B68252201211B
:108BD00099547B682422002199540F23FB181B7899
:108BE0001800BD4604B080BD80B584B000AF786089
:108BF0000F217B1800221A707B6825229B5CDBB258
:108C0000022B06D07B680422DA637B1801221A70DB
:108C10002AE07B681B681A687B681B680E218A4300
:108C20001A607B681B681A687B681B6801218A438D
:108C30001A607B685B6C1C221A407B681B6C0121EC
:108C400091400A005A607B682522012199547B6873
:108C50002422002199547B689B6B002B04D07B68F5
:108C60009B6B7A68100098470F23FB181B7818003D
:108C7000BD4604B080BD000080B584B000AF786010
:108C8000FFF74AFE0300FB600FE07B6801330CD066
:108C90007B68002B07D0FFF73FFE0200FB68D31A6A
:108CA0007A689A4201D2032352E02B4B9B6901223E
:108CB0001340012BE9D0284B9B6902221340022B61
:108CC00002D1254B02229A61234B9A6980235B00D3
:108CD0001A4080235B009A4235D01F4B9A6980234B
:108CE0009B001A4080239B009A422CD01A4B9A6911
:108CF0008023DB001A408023DB009A4223D0164BEE
:108D00009A6980231B011A4080231B019A421AD0C2
:108D1000114B9A6980239B011A4080239B019A4240
:108D200011D00D4B9A6980239B021A4080239B022D
:108D30009A4208D0084B9A6980235B021A4080232C
:108D40005B029A4203D100F009F8012300E00023FE
:108D50001800BD4604B080BD0020024080B582B03E
:108D600000AF00237B60494B9A6980235B001A4067
:108D700080235B009A420AD1454B5B6902221A4369
:108D8000434B5A617B688022520013437B603F4B08
:108D90009A6980239B001A4080239B009A420AD143
:108DA0003B4B5B6901221A43394B5A617B68802235
:108DB000920013437B60354B9A698023DB001A4095
:108DC0008023DB009A420AD1314B5B6908221A43A7
:108DD0002F4B5A617B688022D20013437B602B4B60
:108DE0009A6980231B011A4080231B019A420AD1F1
:108DF000274B5B6904221A43254B5A617B6880220A
:108E0000120113437B60214B9A6980239B011A4016
:108E100080239B019A420AD11D4B5B6910221A43A1
:108E20001B4B5A617B688022920113437B60174B76
:108E30009A6980239B021A4080239B029A4209D19F
:108E4000134B5B6920221A43114B5A617B68202225
:108E500013437B600D4B9A6980235B021A40802389
:108E60005B029A420AD10A4B5B6940221A43084BC3
:108E70005A617B688022520213437B60034B7A68FD
:108E80009A61C046BD4602B080BDC0460020024087
:108E9000A00B002080B584B000AF124B5B680122AC
:108EA000134019D0EFF310837B607B68FB6072B6D0
:108EB000C0460C4B0C4ADA600A4B0C4ADA60FB687D
:108EC000BB60BB6883F31088C046064B5B68012219
:108ED000134001D0012300E000231800BD4604B078
:108EE00080BDC04600200240EFCDAB8905040302DF
:108EF00080B500AF044B5A68034B01210A435A6006
:108F000000231800BD4680BD00200240B0B586B0E9
:108F100000AFF860B9607A601723FB1801221A705D
:108F2000244B1B7C012B01D102233EE0214B01226B
:108F30001A7417257C19204B1800FFF79DFE0300BB
:108F400023707B191B78002B29D11A4B00225A6100
:108F5000FB68022B03D1BB687A681A6013E0FB68D8
:108F6000012B04D1BB687A6892B21A800BE0FB68CF
:108F7000002B04D1BB687A68D2B21A7003E01723C1
:108F8000FB1801221A701722BB181B78002B06D180
:108F9000BC18094B1800FFF76FFE03002370054B48
:108FA00000221A741723FB181B781800BD4606B060
:108FB000B0BDC046A00B002050C3000080B586B0F5
:108FC00000AF7860396000237B610023FB600023E1
:108FD0003B6155E13B681B6801217A6991400A00B9
:108FE0001340FB60FB68002B00D146E13B685B68E7
:108FF00003221340012B05D03B685B68032213401A
:10900000022B30D17B689B683B617B695B0003224C
:109010009A401300DA433B6913403B613B68DA68CE
:109020007B695B009A4013003A6913433B617B689C
:109030003A699A607B685B683B6101227B699A4070
:109040001300DA433B6913403B613B685B681B09D3
:1090500001221A407B699A4013003A6913433B612D
:109060007B683A695A603B685B6803221340032BB4
:1090700017D07B68DB683B617B695B0003229A4009
:109080001300DA433B6913403B613B689A687B6994
:109090005B009A4013003A6913433B617B683A696D
:1090A000DA603B685B6803221340022B23D17B69A3
:1090B000DA087B6808329200D3583B617B6907224B
:1090C00013409B000F229A401300DA433B69134080
:1090D0003B613B681A697B6907210B409B009A4002
:1090E00013003A6913433B617B69DA087B680832F5
:1090F00092003969D1507B681B683B617B695B00DA
:1091000003229A401300DA433B6913403B613B68FA
:109110005B6803221A407B695B009A4013003A693E
:1091200013433B617B683A691A603B685A68C02305
:109130009B02134000D1A0E0574B5A6B564B0121C4
:109140000A435A63554A7B699B0802339B009B582C
:109150003B617B69032213409B000F229A4013005E
:10916000DA433B6913403B617A68A023DB059A42EE
:109170001FD07B684A4A934219D07B68494A934280
:1091800013D07B68484A93420DD07B68474A93428C
:1091900007D07B68464A934201D105230AE00623A3
:1091A00008E0042306E0032304E0022302E0012395
:1091B00000E000237A6903210A40920093403A6953
:1091C00013433B6135497B699B0802339B003A6935
:1091D0005A50384B9B683B61FB68DA433B6913404C
:1091E0003B613B685A6880235B03134003D03A69B4
:1091F000FB6813433B612F4B3A699A602D4BDB6848
:109200003B61FB68DA433B6913403B613B685A684A
:1092100080239B03134003D03A69FB6813433B61EF
:10922000244B3A69DA60234B5B683B61FB68DA43A5
:109230003B6913403B613B685A6880239B021340A3
:1092400003D03A69FB6813433B611A4B3A695A6091
:10925000184B1B683B61FB68DA433B6913403B6179
:109260003B685A6880235B02134003D03A69FB686D
:1092700013433B610F4B3A691A607B6901337B6191
:109280003B681A687B69DA40131E00D0A2E6C0462C
:10929000C046BD4606B080BD00100240000001403F
:1092A0000004005000080050000C00500010005056
:1092B000001C00500004014080B586B000AF78600B
:1092C000396000237B6100233B610023FB60BCE02D
:1092D00001227B699A403B6813403B613B69002B4C
:1092E00000D1AFE05E4A7B699B0802339B009B582C
:1092F000FB607B69032213409B000F229A40FB68AE
:109300001340FB607A68A023DB059A421FD07B687C
:10931000544A934219D07B68534A934213D07B68D6
:10932000524A93420DD07B68514A934207D07B68E2
:10933000504A934201D105230AE0062308E00423A2
:1093400006E0032304E0022302E0012300E00023FF
:109350007A6903210A4092009340FA689A4232D116
:10936000454B1A683B69D943434B0A401A60424B4C
:109370005A683B69D943404B0A405A603E4BDA6811
:109380003B69D9433C4B0A40DA603B4B9A683B69E6
:10939000D943394B0A409A607B69032213409B00F2
:1093A0000F229A401300FB602D4A7B699B08023311
:1093B0009B009A58FB68D94329487B699B080A405F
:1093C00002339B001A507B681A687B695B0003219B
:1093D00099400B001A437B681A607B69DA087B6846
:1093E00008329200D3587A6907210A4092000F216F
:1093F00091400A00D1437A69D20819407B6808324B
:109400009200D1507B68DB687A6952000321914059
:109410000A00D2431A407B68DA607B685B680121EE
:109420007A6991400A00D2431A407B685A607B688F
:109430009B687A695200032191400A00D2431A4086
:109440007B689A607B6901337B613A687B69DA40AB
:10945000131E00D03CE7C046C046BD4606B080BDE6
:10946000000001400004005000080050000C0050B3
:1094700000100050001C00500004014080B582B074
:1094800000AF786008001100BB1C021C1A807B1C16
:109490000A1C1A707B1C1B78002B04D0BB1C1A887A
:1094A0007B689A6103E0BB1C1A887B689A62C0469D
:1094B000BD4602B080BD000080B582B000AF0200A2
:1094C000BB1D1A80094B5B69BA1D1288134008D076
:1094D000064BBA1D12885A61BB1D1B88180000F08C
:1094E00007F8C046BD4602B080BDC046000401403A
:1094F00080B582B000AF0200BB1D1A80C046BD46D9
:1095000002B080BD80B584B000AF78607B68002B6E
:1095100001D1012378E07B682E229B5CDBB2002B1B
:1095200007D17B682D22002199547B681800FEF733
:1095300089FE7B682E22022199547B681B68DB68B8
:10954000FB607B685B68012B05D07B689A6A80238F
:109550001B049A4203D1FB681E229343FB607B6885
:109560005B692B4A934203D0FB682A4A1340FB6095
:10957000FB68294A1340FB607B685A687B689B68DC
:109580001A437B681B6A1A437B685B6A1A437B68D1
:109590009B6A1343FA681343FB607B685B68002B8C
:1095A00007D17B68DA697B681B691343FA68134348
:1095B000FB607B685B68012B05D07B689A6A80231F
:1095C0001B049A4207D17B68DA687B681B691343E6
:1095D000FA681343FB607B685B690D4A93420AD0CB
:1095E0007B685A697B689B691A437B68DB69134314
:1095F000FA681343FB607B681B68FA68DA607B6873
:109600002E220121995400231800BD4604B080BDCC
:10961000FFFF00003F1FFFFFFEF119FF80B582B082
:1096200000AF78607B68002B01D101231DE07B68CF
:109630002E22022199547B68180000F0AFF97B6854
:10964000180000F067F90300032B01D103230CE09D
:109650007B681800FEF716FE7B682E2200219954C5
:109660007B682D220021995400231800BD4602B0CA
:1096700080BD000080B582B000AF786039607B6843
:109680002E2202219954344B1A68334B80218905CC
:109690000A431A607B685B68012B0DD07B689A6A6D
:1096A00080231B049A4207D17B681B68DA687B68B9
:1096B0001B682A490A40DA607B681B681A697B6864
:1096C0001B6801210A431A617B681B6810225A60DB
:1096D0007B681B683A689A617B681021180000F06B
:1096E00025F90300032B01D1032331E07B68180027
:1096F00000F054F97B68180000F00CF90300032B0C
:1097000001D1032324E07B681B689A687B681B688F
:1097100010210A439A607B681B689A687B681B6803
:1097200002210A439A607B681B681A697B681B6880
:1097300001210A431A617B681B681A697B681B68F0
:1097400004210A431A617B682E22012199540023C7
:109750001800BD4602B080BD00040140FFF1FFFFCC
:1097600080B582B000AF78607B681B681B680122FF
:109770001340012B0ED17B681B689B6801221340AC
:10978000012B07D17B681B6801225A607B68180097
:1097900000F088F87B681B681B6802221340022BCC
:1097A0000ED17B681B689B6802221340022B07D1F5
:1097B0007B681B6802225A607B68180000F07AF808
:1097C0007B681B681B6804221340042B0ED17B6846
:1097D0001B689B6804221340042B07D17B681B681D
:1097E00004225A607B68180000F06CF87B681B68E4
:1097F0001B6808221340082B0ED17B681B689B68EE
:1098000008221340082B07D17B681B6808225A6086
:109810007B68180000F05EF87B681B681B681022EC
:109820001340102B0ED17B681B689B6810221340DD
:10983000102B07D17B681B6810225A607B681800C8
:1098400000F050F87B681B681B6820221340202B17
:109850000ED17B681B689B6820221340202B07D108
:109860007B681B6820225A607B68180000F042F871
:109870007B681B681B6840221340402B0ED17B681D
:109880001B689B6840221340402B07D17B681B68F4
:1098900040225A607B68180000F034F8C046BD468C
:1098A00002B080BD80B582B000AF7860C046BD46D2
:1098B00002B080BD80B582B000AF7860C046BD46C2
:1098C00002B080BD80B582B000AF7860C046BD46B2
:1098D00002B080BD80B582B000AF7860C046BD46A2
:1098E00002B080BD80B582B000AF7860C046BD4692
:1098F00002B080BD80B582B000AF7860C046BD4682
:1099000002B080BD80B582B000AF7860C046BD4671
:1099100002B080BD80B582B000AF78607B682E2237
:109920009B5CDBB21800BD4602B080BD80B584B040
:1099300000AF786039600F23FB1800221A70154BB6
:109940001B6815491800FAF7FBFB03001A00130007
:109950005B019B1A9B009B18DB00BB60BB68013B53
:10996000BB60BB68002B03D10F23FB1803221A70C6
:109970007B681B681B683A6813403A689A4202D0B9
:10998000BB68002BEAD10F23FB181B781800BD46DB
:1099900004B080BD00000020204E000080B58CB0D7
:1099A00000AF78600023FB62EFF310833B613B69FB
:1099B000BB6201237B617B6983F31088C0467B68AF
:1099C0001B681A00564B9A4206D1564BDA6CC023DC
:1099D0001B031340FB6200E0C0467B681B689B686A
:1099E0007B627B681B68DB683B627B681B685B692A
:1099F000FB617B681B689B69BB617B681B681A0005
:109A0000474B9A420DD1474B9A6A464B8021090633
:109A10000A439A62434B9A6A424B520052089A6236
:109A200000E0C046FB69002B02D1BB69002B5CD073
:109A30007B681B681A003A4B9A4206D1394BDA6CA4
:109A4000384B39490A40DA6400E0C046FB69002B14
:109A50001BD07B681B681A697B681B6801210A435D
:109A60001A617B681B68FA695A617B6808211800D3
:109A7000FFF75CFF0300032B03D17B682E22032139
:109A800099547B681B6808225A60BB69002B1BD065
:109A90007B681B681A697B681B6801210A431A618D
:109AA0007B681B68BA699A617B6810211800FFF710
:109AB0003DFF0300032B03D17B682E220321995421
:109AC0007B681B6810225A607B681B681A00144B65
:109AD0009A4209D1134BDB6C134A13401900114B06
